:020000040000FA
:0400000007EF00F016
:10000800018239ED02F024EF02F0800E0001806FCA
:10001800960E816F980E826F000E836F000120EE9E
:1000280003F08E51D9268F51DA22DECF90F0DECF41
:1000380091F0DECF92F0DECF93F0060ED89000015B
:100048009037913792379337E82E22EF00F090C01F
:1000580084F091C085F092C086F093C087F06FEC71
:1000680001F0000180510001966F800E0001806F41
:10007800960E816F980E826F000E836F000120EE3E
:1000880003F08E51D9268F51DA22DECF90F0DECFE1
:1000980091F0DECF92F0DECF93F0040ED8900001FD
:1000A8009037913792379337E82E52EF00F090C08F
:1000B80084F091C085F092C086F093C087F06FEC11
:1000C80001F0000180510001976F800E0001806FE0
:1000D800960E816F980E826F000E836F000120EEDE
:1000E80003F08E51D9268F51DA22DECF90F0DECF81
:1000F80091F0DECF92F0DECF93F0020ED89000019F
:100108009037913792379337E82E82EF00F090C0FE
:1001180084F091C085F092C086F093C087F06FECB0
:1001280001F0000180510001986F000120EE03F0FA
:100138008E51D9268F51DA22DF500001906F800E40
:100148000001806F960E816F980E826F000E836F8C
:1001580000019651400DF3CF91F0F4CF92F091C089
:1001680084F092C085F00001000E85BFFF0E866FF7
:10017800876F6FEC01F0000190510001805D000174
:10018800946F000120EE03F08E51D9268F51DA22A8
:10019800DF500001906F800E0001806F960E816F16
:1001A800980E826F000E836F00019751100DF3CFE8
:1001B80091F0F4CF92F091C084F092C085F00001E4
:1001C800000E85BFFF0E866F876F6FEC01F0000190
:1001D80090510001805D0001996F000120EE03F04D
:1001E8008E51D9268F51DA22DF500001906F800E90
:1001F8000001806F960E816F980E826F000E836FDC
:1002080000019851040DF3CF91F0F4CF92F091C012
:1002180084F092C085F00001000E85BFFF0E866F46
:10022800876F6FEC01F0000190510001805D0001C3
:10023800956F94C09AF0B896AC9400019605AF6E8D
:1002480000019A510001995DD8B02DEF01F02FEF10
:1002580001F036EF01F099C09AF0B896AC8400012D
:100268009705AF6E00019A510001955DD8B03FEF38
:1002780001F041EF01F046EF01F0B886AC840001CF
:100288009805AF6E000120EE02F08E51D9268F51ED
:10029800DA22DF500001906F903BAC509019EF0BC1
:1002A8009019AC6EAB8E000120EE01F08E51D9266C
:1002B8008F51DA22DE04D8A464EF01F066EF01F072
:1002C8006AEF01F0AC8CAB8C6CEF01F0AC9CAB9C92
:1002D800AC8AAB881200000E0001896F87BF79EFE6
:1002E80001F077EF01F083EF01F0871F861F851F6C
:1002F800846D000E852386238723010E896F83BFB3
:100308008AEF01F088EF01F094EF01F0831F821F5C
:10031800811F806D000E812382238323010E891B98
:10032800000E8A6F000E8B6F000E8C6F000E8D6FA3
:100338008451851186118711D8B4A5EF01F0A7EF74
:1003480001F0DDEF01F0010E886FB1EF01F0D890F8
:100358008437853786378737882B87AFB6EF01F024
:10036800B8EF01F0ABEF01F0D8908A378B378C37B4
:100378008D378451805D85518159865182598751C5
:100388008359D8A0CAEF01F0CCEF01F0D5EF01F006
:100398008451805F8551815B8651825B8751835B85
:1003A8008A81D8908733863385338433882FB8EF92
:1003B80001F08951D8B4E3EF01F0E5EF01F0EDEF7A
:1003C80001F08D1F8C1F8B1F8A6D000E8B238C23D1
:1003D8008D238AC080F08BC081F08CC082F08DC0E4
:1003E80083F012009350FE0B936E9350FD0B936EA7
:1003F8008150FE0B8A6E815002098A6E000E816E52
:10040800A20E00018E6F000E8F6F09EC00F048EC11
:1004180002F000019C6F00019B5100019C19D8B4A7
:1004280018EF02F01AEF02F00BEF02F09CC09BF0FD
:1004380000019B5157EC02F00BEF02F007EF00F0C0
:10044800A20EF66E040EF76E000EF86E00EE9DF02A
:1004580010EE0CF00900F5CFEEFFE550E150FAE19F
:10046800019001920001F6EF01F00600F2A43FEFBF
:1004780002F041EF02F046EF02F0E10ED76E7B0E7C
:10048800D66EF294019211009EAA4DEF02F04FEF42
:1004980002F048EF02F0AE50120000000000070022
:1004A800000000C201000001806F80C0ADFF120093
:020000040020DA
:08000000FFFFFFFFFFFFFFFF00
:020000040030CA
:0E000000FF021F1EFF8181FF0FC00FE00F40A7
:00000001FF
