:020000040000FA
:0400000007EF00F016
:0A0008006B8219ED03F0CBEF05F059
:100600000053544152545F424C5545544F4F544847
:100610000044485431312054494D454F555400440D
:1006200048543131204F4B00454E4420494E4954E7
:1006300000000600E9CF63F0EACF64F0D9CF65F09F
:10064000DACF66F0F6CF67F0F7CF68F0F8CF69F051
:10065000F5CF6AF0F2A42FEF03F031EF03F03CEF97
:1006600003F0290E536E000E546E7EEC06F0FB0E66
:10067000D76E1E0ED66EF2949EAA41EF03F043EFA2
:1006800003F09DEF03F0AECF4AF04C0E4924D96E33
:10069000DA6A000EDA224AC0DFFF3E0E4A18D8B4EA
:1006A00054EF03F056EF03F061EF03F04C0E4924D2
:1006B000D96EDA6A000EDA224AC0DFFF492A9CEFBF
:1006C00003F04C0E4924D96EDA6A000EDA224AC0D1
:1006D000DFFF000E536E010EADEC04F0110E626EE2
:1006E0003A0EE82EFED7622EFCD700D04C0E566E86
:1006F000000E576E040E586E000E596EECEC04F0AE
:10070000430E4D18D8A487EF03F089EF03F08EEF66
:1007100003F0010E7AEC06F09AEF03F0440E4D1848
:10072000D8A495EF03F097EF03F09AEF03F0000ED3
:100730007AEC06F0000E496E9E9A6AC0F5FF69C019
:10074000F8FF68C0F7FF67C0F6FF66C0DAFF65C054
:10075000D9FF64C0EAFF63C0E9FF6B921100040E89
:100760000001C36FCF0EC26F010EE82EFED7C22F5D
:10077000FCD7C32FFAD700D061EC05F09350FE0BE5
:10078000936E9350FD0B936E000E6AEC06F0000121
:10079000C46F010E6AEC06F00001C56F020E6AEC30
:1007A00006F00001C66F410EC419D8B4DAEF03F0A9
:1007B000DCEF03F0E1EF03F0000EB36F410EF8EC55
:1007C00005F0420E0001C519D8B4E9EF03F0EBEFD4
:1007D00003F0F0EF03F0010EB36F420EF8EC05F0FA
:1007E000430E0001C619D8B4F8EF03F0FAEF03F096
:1007F000FFEF03F0020EB36F430EF8EC05F0000EAE
:100800000001B36F010E2AEC04F0110E0001C26F5B
:100810003A0EE82EFED7C22FFCD700F0C40E00011E
:10082000B66F000EB76F040EB86F000EB96F6EECA6
:1008300004F01A0E0001C36F5E0EC26F6E0EE82E3A
:10084000FED7C22FFCD7C32FFAD700F0FFEF03F07B
:1008500007EF00F00001B56F0001B305D8A433EF36
:1008600004F035EF04F03AEF04F0815008098A6E85
:100870003DEF04F08150F70B8A6EB551F00BB66F67
:1008800081500F0BB6118A6E8150FB0B8A6E81501E
:1008900004098A6E530EE82EFED700F08150FB0B40
:1008A0008A6E0001B539F00BB66FB6C08AFF815071
:1008B000FB0B8A6E815004098A6E530EE82EFED718
:1008C00000F08150FB0B8A6E040E0001B46F3D0EE8
:1008D000E82EFED7B42FFCD700D01200000E000186
:1008E000C16F000EC16F8FEF04F0C151B625BA6F12
:1008F000000EB721BB6FBAC0F6FFBBC0F7FFF86AA6
:10090000050EF76403D00800F55005D0F6CFE9FFD7
:10091000F7CFEAFFEF5029EC05F00001C12BFF0EE5
:10092000BA6FFF0EBB6FB851BC6FBD6BBA51BC271D
:10093000BB51BD23C151BE6FBF6BBC51BE5DBF512A
:10094000800AC06FBD51800AC059D8A0AAEF04F038
:10095000ACEF04F075EF04F01200556E5304D8A408
:10096000B4EF04F0B6EF04F0BBEF04F081500809D7
:100970008A6EBEEF04F08150F70B8A6E5550F00B73
:10098000566E81500F0B56108A6E8150FB0B8A6E8B
:10099000815004098A6E530EE82EFED700F0815074
:1009A000FB0B8A6E5538F00B566E56C08AFF81508D
:1009B000FB0B8A6E815004098A6E530EE82EFED717
:1009C00000F08150FB0B8A6E040E546E3E0EE82E32
:1009D000FED7542EFCD71200000E616E000E616E21
:1009E0000BEF05F0615056245A6E000E57205B6ED7
:1009F0005AC0F6FF5BC0F7FFF86A050EF76403D034
:100A00000800F55005D0F6CFE9FFF7CFEAFFEF5029
:100A100096EC05F0612AFF0E5A6EFF0E5B6E585081
:100A20005C6E5D6A5A505C265B505D2261505E6E62
:100A30005F6A5C505E5C5F50800A606E5D50800A49
:100A40006058D8A026EF05F028EF05F0F2EF04F08B
:100A500012000001B46F815008098A6E0001B45180
:100A6000F00BB56F81500F0BB5118A6E8150FB0BE7
:100A70008A6E815004098A6E530EE82EFED700F06C
:100A80008150FB0B8A6E0001B439F00BB56F8150B9
:100A90000F0BB5118A6E8150FB0B8A6E81500409D1
:100AA0008A6E530EE82EFED700F08150FB0B8A6E43
:100AB000070E0001B36F7D0EE82EFED7B32FFCD7D3
:100AC0001200410E0001B76FEE0EE82EFED7B72FD1
:100AD000FCD700F0000E936E200E1AEC06F0200EEC
:100AE0001AEC06F0300E1AEC06F0000E0001B36F9F
:100AF0002C0E2AEC04F0000E0001B36F060E2AEC57
:100B000004F0000E0001B36F0F0E2AEC04F0000E8B
:100B10000001B36F010E2AEC04F0070E0001B76F5D
:100B20007D0EE82EFED7B72FFCD71200546E8150F1
:100B300008098A6E5450F00B556E81500F0B5510FA
:100B40008A6E8150FB0B8A6E815004098A6E530EA7
:100B5000E82EFED700F08150FB0B8A6E5438F00B64
:100B6000556E81500F0B55108A6E8150FB0B8A6EAB
:100B7000815004098A6E530EE82EFED700F0815092
:100B8000FB0B8A6E070E536E7D0EE82EFED7532E9A
:100B9000FCD700F01200700EF66E0C0EF76E000E11
:100BA000F86E00EE80F010EE33F00900F5CFEEFFA6
:100BB000E550E150FAE1A30EF66E0C0EF76E000E52
:100BC000F86E00EE01F010EE30F00900F5CFEEFF08
:100BD000E550E150FAE100EE31F0220EEE6AE8064F
:100BE000FDE16B906B92000EF86E0001AFEF03F029
:100BF0000001B46F000EF2BE010E0001B56FA6B287
:100C000004EF06F006EF06F0FFEF05F0B3C0A9FF12
:100C1000B4C0A8FFA69EA69CA684F29E550EA76E01
:100C2000AA0EA76EA6820001B5B102D0F29E01D035
:100C3000F28E12000001B46F8150F70B8A6E815062
:100C40000F0B0001B4118A6E815004098A6E530E95
:100C5000E82EFED700F08150FB0B8A6E040E0001D7
:100C6000B36F3D0EE82EFED7B32FFCD700D0120095
:100C70005553455220434F4E45435441444F005530
:100C800053455220444553434F4E4E0048554D3A2C
:100C9000200000000000000041542B50494E5859DC
:100CA0005A570054454D503A20000000000041546E
:100CB0002B424155440041542B4E414D450000000C
:100CC0000080250000000000010101010000005A21
:030CD000052300F9
:100CD4000001B36FA6B271EF06F073EF06F06CEF8C
:100CE40006F0B3C0A9FFA69EA69CA680A850120039
:0A0CF400536E53C048F012001200C6
:020000040020DA
:08000000FFFFFFFFFFFFFFFF00
:020000040030CA
:0E000000FF021F1EFF0181FF0FC00FE00F4027
:00000001FF
