:020000040000FA
:0400000007EF00F016
:100008003882C5ED01F087EF02F0800E046E960E7F
:10001800056E980E066E000E076E20EE03F0125065
:10002800D9261350DA22DECF14F0DECF15F0DECF5A
:1000380016F0DECF17F0060ED890143615361636A1
:100048001736E82E20EF00F014C008F015C009F0AC
:1000580016C00AF017C00BF03FEC01F004501A6EFE
:10006800800E046E960E056E980E066E000E076ED4
:1000780020EE03F01250D9261350DA22DECF14F006
:10008800DECF15F0DECF16F0DECF17F0040ED890D5
:100098001436153616361736E82E4BEF00F014C016
:1000A80008F015C009F016C00AF017C00BF03FECB5
:1000B80001F004501B6E800E046E960E056E980EAD
:1000C800066E000E076E20EE03F01250D92613506C
:1000D800DA22DECF14F0DECF15F0DECF16F0DECF59
:1000E80017F0020ED8901436153616361736E82E45
:1000F80076EF00F014C008F015C009F016C00AF039
:1001080017C00BF03FEC01F004501C6E20EE03F01A
:100118001250D9261350DA22DF50146E800E046E66
:10012800960E056E980E066E000E076E1A50400D5C
:10013800F3CF15F0F4CF16F015C008F016C009F08B
:10014800000E09BEFF0E0A6E0B6E3FEC01F0145054
:10015800045C186E20EE03F01250D9261350DA22F0
:10016800DF50146E800E046E960E056E980E066EA5
:10017800000E076E1B50100DF3CF15F0F4CF16F0DC
:1001880015C008F016C009F0000E09BEFF0E0A6E71
:100198000B6E3FEC01F01450045C1D6E20EE03F072
:1001A8001250D9261350DA22DF50146E800E046ED6
:1001B800960E056E980E066E000E076E1C50040D06
:1001C800F3CF15F0F4CF16F015C008F016C009F0FB
:1001D800000E09BEFF0E0A6E0B6E3FEC01F01450C4
:1001E800045C196E18C01EF0B896AC941A04AF6E71
:1001F8001E501D5CD8B003EF01F005EF01F00BEFC6
:1002080001F01DC01EF0B896AC841B04AF6E1E50E2
:10021800195CD8B012EF01F014EF01F018EF01F0FB
:10022800B886AC841C04AF6E20EE02F01250D926BA
:100238001350DA22DF50146E143AAC501418EF0B36
:100248001418AC6EAB8E20EE01F01250D926135064
:10025800DA22DE04D8A433EF01F035EF01F039EFEC
:1002680001F0AC8CAB8C3BEF01F0AC9CAB9CAC8A46
:10027800AB889D8A1200000E0D6E0BBE48EF01F090
:1002880046EF01F052EF01F00B1E0A1E091E086C22
:10029800000E09220A220B22010E0D6E07BE59EF2D
:1002A80001F057EF01F063EF01F0071E061E051E6F
:1002B800046C000E052206220722010E0D1A000EFC
:1002C8000E6E000E0F6E000E106E000E116E0850AE
:1002D80009100A100B10D8B474EF01F076EF01F092
:1002E800ACEF01F0010E0C6E80EF01F0D8900836EB
:1002F80009360A360B360C2A0BAE85EF01F087EF6C
:1003080001F07AEF01F0D8900E360F36103611361C
:100318000850045C095005580A5006580B500758F5
:10032800D8A099EF01F09BEF01F0A4EF01F008507D
:10033800045E0950055A0A50065A0B50075A0E8097
:10034800D8900B320A32093208320C2E87EF01F0AE
:100358000D50D8B4B2EF01F0B4EF01F0BCEF01F0EA
:10036800111E101E0F1E0E6C000E0F2210221122DD
:100378000EC004F00FC005F010C006F011C007F061
:1003880012000600D9CF02F0DACF03F0F2A4CFEFC3
:1003980001F0D1EF01F0DCEF01F08150010A8A6E23
:1003A8008150020A8A6EE10ED76E7B0ED66EF294E9
:1003B8009EAAE1EF01F0E3EF01F014EF02F0AECFF7
:1003C80037F0410E3718D8A4ECEF01F0EEEF01F04A
:1003D80013EF02F0000E366E000E356E365009E14E
:1003E8000A0E355CD8A0FBEF01F0FDEF01F0FFEF3E
:1003F80001F013EF02F01F0E3524D96E000E3620DF
:10040800DA6EDF50AAEC02F0ACA20DEF02F00FEFAB
:1004180002F008EF02F0354A362AF2EF01F09E9A10
:1004280003C0DAFF02C0D9FF38921100D59E04C07C
:10043800D9FF05C0DAFFDF50066E063A06460646C3
:10044800D5500618BF0B0618D56E20EE01F00450E3
:10045800D9260550DA22DF50066E063A0646D550F0
:100468000618DF0B0618D56E20EE03F00450D926C7
:100478000550DA22DF50066E064606460646D55077
:100488000618F70B0618D56ED530E832E832010B9E
:100498000009D8A452EF02F054EF02F061EF02F025
:1004A80020EE04F00450D9260550DA22DF50066EFB
:1004B800D5500618F80B0618D56EF28AF184D90EB5
:1004C800D76ED90ED66ED58E12009350FE0B936E52
:1004D8009350FD0B936E8150FE0B8A6E815002097A
:1004E8008A6EB5EC02F0300E046E000E056E1AEC42
:1004F80002F0290E126E000E136E09EC00F083EF65
:1005080002F007EF00F03E0EF66E050EF76E000ED5
:10051800F86E00EE1FF010EE16F00900F5CFEEFFB2
:10052800E550E150FAE1376A366A356A3890389210
:10053800000169EF02F041432B56455253494F4E93
:10054800000000802500000000000007016E01C0C7
:10055800ADFFACA2B2EF02F0B4EF02F0ADEF02F0E3
:0A0568001200D08EF28EF28C120009
:020000040020DA
:08000000FFFFFFFFFFFFFFFF00
:020000040030CA
:0E000000FF021F1EFF8181FF0FC00FE00F40A7
:00000001FF
