:020000040000FA
:0400000007EF00F016
:0A0008006F82C1ED07F005EF0AF06A
:10060000000A2A2A2A454E564941204C4F4720418C
:100610005455414C3A202A2A2A0A000A2A2A2A55E5
:100620004C54494D4F204C4F472A2A2A0A000A545D
:10063000656D70657261747572613A2020200020CA
:100640002020556D69646164653A20200054656D11
:1006500020656E6572676961004572726F2053652F
:100660006E736F720046554C4C204D454D2E004820
:10067000554D443A200054454D503A200000000E9C
:100680000001BD6F000EC16F000EBF6F000EBE6F88
:100690002750D8B44EEF03F050EF03F048EF03F0CB
:1006A00065EC0BF099EC0AF015EC08F0206E15ECF7
:1006B00008F01F6E15EC08F01E6E15EC08F01D6EAC
:1006C00015EC08F06D6E6D50126E136A1D501EC051
:1006D0006DF06E6A6D26000E6E2220506D26000EA3
:1006E0006E221F506D26000E6E2212506D1807E10B
:1006F00013506E18D8A47FEF03F081EF03F0A3EF3F
:1007000005F01EC05CF05D6A000E5F6E0A0E5E6E44
:1007100007EC07F01EC05CF05D6A000E5F6E0A0E0B
:100720005E6E69EC07F0BBC05CF05D6A000E5F6E48
:100730000A0E5E6E07EC07F05C50300F0001BB6FD5
:10074000BCC05CF05D6A000E5F6E0A0E5E6E69EC06
:1007500007F05C50300F0001BC6FB1EC0BF0196E6C
:10076000000E5C6E010E4DEC09F00C0E6D6EAF0EBE
:10077000E82EFED76D2EFCD700F06F0E5F6E060ED2
:10078000606E070E616E000E626E8BEC09F020C089
:100790005CF05D6A000E5F6E0A0E5E6E07EC07F09D
:1007A0005C50300F38EC0AF020C05CF05D6A000E3F
:1007B0005F6E0A0E5E6E69EC07F05C50300F38EC2D
:1007C0000AF02E0E38EC0AF01FC05CF05D6A000ED5
:1007D0005F6E0A0E5E6E07EC07F05C50300F38EC6F
:1007E0000AF01FC05CF05D6A000E5F6E0A0E5E6E5E
:1007F00069EC07F05C50300F38EC0AF0250E38EC4D
:100800000AF0000E5C6EC00E4DEC09F0760E5F6EC5
:10081000060E606E070E616E000E626E8BEC09F0C4
:100820001EC05CF05D6A000E5F6E0A0E5E6E07EC25
:1008300007F05C50300F38EC0AF01EC05CF05D6AC7
:10084000000E5F6E0A0E5E6E69EC07F05C50300FB2
:1008500038EC0AF02E0E38EC0AF01DC05CF05D6A30
:10086000000E5F6E0A0E5E6E07EC07F05C50300FF4
:1008700038EC0AF01DC05CF05D6A000E5F6E0A0E77
:100880005E6E69EC07F05C50300F38EC0AF0DF0E5A
:1008900038EC0AF0430E38EC0AF0200E38EC0AF07F
:1008A000F10E38EC0AF0320E38EC0AF01950D8B4D8
:1008B0005CEF04F05EEF04F02AEF05F01C50D8B4B2
:1008C00064EF04F066EF04F0DCEF04F01B0E5D6EE5
:1008D000060E5E6E120E5F6EBBEC0AF0000E00019B
:1008E000C16FC15177EC0BF00001C06FC029D8B4C3
:1008F0007CEF04F07EEF04F0CBEF04F0C1C0BDF05C
:10090000BD2B2E0E5D6E060E5E6E110E5F6EBBEC85
:100910000AF0C0C05CF05D6A000E5F6E0A0E5E6E8B
:1009200007EC07F05C50300F9CEC0BF0C0C05CF0A3
:100930005D6A000E5F6E0A0E5E6E69EC07F05C5039
:10094000300F9CEC0BF00001BD5177EC0BF0000177
:10095000BF6F3F0E5D6E060E5E6E0E0E5F6EBBECE1
:100960000AF0BFC05CF05D6A000E5F6E0A0E5E6E3C
:1009700007EC07F05C50300F9CEC0BF0BFC05CF054
:100980005D6A000E5F6E0A0E5E6E69EC07F05C50E9
:10099000300F9CEC0BF0020E0001C127080EC16560
:1009A000D4EF04F0D6EF04F071EF04F0000E1C6EEB
:1009B000000E266ECAEF05F0010E5D6E060E5E6E2D
:1009C000190E5F6EBBEC0AF02E0E5D6E060E5E6EAB
:1009D000110E5F6EBBEC0AF01EC05CF05D6A000E8B
:1009E0005F6E0A0E5E6E07EC07F05C50300F9CECF9
:1009F0000BF01EC05CF05D6A000E5F6E0A0E5E6E4C
:100A000069EC07F05C50300F9CEC0BF03F0E5D6E14
:100A1000060E5E6E0E0E5F6EBBEC0AF020C05CF040
:100A20005D6A000E5F6E0A0E5E6E07EC07F05C50AA
:100A3000300F9CEC0BF020C05CF05D6A000E5F6E26
:100A40000A0E5E6E69EC07F05C50300F9CEC0BF008
:100A5000C6EF05F0AEEC0BF0186E1850D8B433EFBB
:100A600005F035EF05F058EF05F0000E5C6E010E55
:100A70004DEC09F0140E6D6E7A0EE82EFED76D2E39
:100A8000FCD74D0E5F6E060E606E0C0E616E000E92
:100A9000626E8BEC09F0080E6E6E9D0E6D6E060E8A
:100AA000E82EFED76D2EFCD76E2EFAD7C6EF05F0D6
:100AB000090E26605EEF05F060EF05F07DEF05F0B2
:100AC00026C05CF01E5028EC0BF026C0BEF00001E2
:100AD000BE2BBEC05CF0205028EC0BF0100E6E6EEA
:100AE000390E6D6E0E0EE82EFED76D2EFCD76E2ED3
:100AF000FAD7020E26269FEF05F0000E5C6E010E5F
:100B00004DEC09F0140E6D6E7A0EE82EFED76D2EA8
:100B1000FCD7650E5F6E060E606E0A0E616E000EEB
:100B2000626E8BEC09F0060E6E6E540E6D6E9D0EAD
:100B3000E82EFED76D2EFCD76E2EFAD700F0010EF0
:100B40001C6EC6EF05F0000E5C6E010E4DEC09F058
:100B50000C0E6D6EAF0EE82EFED76D2EFCD700F09A
:100B6000590E5F6E060E606E0C0E616E000E626EA8
:100B70008BEC09F01F0E6E6E710E6D6E1E0EE82E60
:100B8000FED76D2EFCD76E2EFAD700D0000E276E42
:100B900048EF03F01200000E5C6E1B0E5D6EB70E88
:100BA0005E6E000E5F6E20EE03F06950D9266A502B
:100BB000DA22DECF6BF0DECF6CF0DECF6DF0DECF71
:100BC0006EF0060ED8906B366C366D366E36E82EAB
:100BD000E2EF05F06BC060F06CC061F06DC062F0D8
:100BE0006EC063F067EC08F05C500001BD6F000E52
:100BF0005C6E1B0E5D6EB70E5E6E000E5F6E20EEBD
:100C000003F06950D9266A50DA22DECF6BF0DECFCE
:100C10006CF0DECF6DF0DECF6EF0040ED8906B3648
:100C20006C366D366E36E82E0EEF06F06BC060F057
:100C30006CC061F06DC062F06EC063F067EC08F0EC
:100C40005C500001BE6F000E5C6E1B0E5D6EB70E39
:100C50005E6E000E5F6E20EE03F06950D9266A507A
:100C6000DA22DECF6BF0DECF6CF0DECF6DF0DECFC0
:100C70006EF0020ED8906B366C366D366E36E82EFE
:100C80003AEF06F06BC060F06CC061F06DC062F0CE
:100C90006EC063F067EC08F05C500001BF6F20EE9F
:100CA00003F06950D9266A50DA22DF506B6E000ECD
:100CB0005C6E1B0E5D6EB70E5E6E000E5F6EBD51FC
:100CC000400DF3CF6CF0F4CF6DF06CC060F06DC0F0
:100CD00061F0000E61BEFF0E626E636E67EC08F09D
:100CE0006B505C5C0001BB6F20EE03F06950D926AD
:100CF0006A50DA22DF506B6E000E5C6E1B0E5D6E6A
:100D0000B70E5E6E000E5F6EBE51100DF3CF6CF02D
:100D1000F4CF6DF06CC060F06DC061F0000E61BE8C
:100D2000FF0E626E636E67EC08F06B505C5C000156
:100D3000C06F20EE03F06950D9266A50DA22DF50E6
:100D40006B6E000E5C6E1B0E5D6EB70E5E6E000E5F
:100D50005F6EBF51040DF3CF6CF0F4CF6DF06CC03B
:100D600060F06DC061F0000E61BEFF0E626E636EDA
:100D700067EC08F06B505C5C0001BC6FBBC0C1F05D
:100D8000B896AC94BD05AF6EC151C05DD8B0CBEF85
:100D900006F0CDEF06F0D3EF06F0C0C0C1F0B89674
:100DA000AC84BE05AF6EC151BC5DD8B0DAEF06F0C1
:100DB000DCEF06F0E0EF06F0B886AC84BF05AF6E5E
:100DC00020EE02F06950D9266A50DA22DF506B6EAD
:100DD0006B3AAC506B18EF0B6B18AC6EAB8E20EE11
:100DE00001F06950D9266A50DA22DE04D8A4FBEF5C
:100DF00006F0FDEF06F001EF07F0AC8CAB8C03EFD3
:100E000007F0AC9CAB9CAC8AAB889D8A1200000EAC
:100E1000616E5FBE10EF07F00EEF07F016EF07F000
:100E20005E6C5F1ED8B05F2A010E616E5DBE1DEF65
:100E300007F01BEF07F023EF07F05C6C5D1ED8B0E6
:100E40005D2A010E611A000E636E000E626E5E5026
:100E50005F10D8B42EEF07F030EF07F058EF07F02F
:100E6000010E606E38EF07F0D8905E365F36602A6C
:100E70005FAE3DEF07F03FEF07F034EF07F0D8909B
:100E8000623663365E505C5C5F505D58D8A04BEFB5
:100E900007F04DEF07F052EF07F05E505C5E5F50D9
:100EA0005D5A6280D8905F325E32602E3FEF07F06D
:100EB0006150D8B45EEF07F060EF07F064EF07F021
:100EC000626C631ED8B0632A62C05CF063C05DF0E0
:100ED0001200000E616E5DBE72EF07F070EF07F05A
:100EE00078EF07F05C6C5D1ED8B05D2A010E616E74
:100EF0005FBE7FEF07F07DEF07F083EF07F05E6CDA
:100F00005F1ED8B05F2A5E505F10D8B48AEF07F03A
:100F10008CEF07F0B0EF07F0010E606E94EF07F072
:100F2000D8905E365F36602A5FAE99EF07F09BEF90
:100F300007F090EF07F05E505C5C5F505D58D8A002
:100F4000A4EF07F0A6EF07F0AAEF07F05E505C5E93
:100F50005F505D5AD8905F325E32602E9BEF07F093
:100F60006150D8B4B6EF07F0B8EF07F0BCEF07F068
:100F70005C6C5D1ED8B05D2A5CC05CF05DC05DF04D
:100F800012000600FACF58F0FBCF59F0D9CF5AF033
:100F9000DACF5BF0F2A4CFEF07F0D1EF07F0DCEF90
:100FA00007F0480E566E000E576EDAEC0AF0D20EBD
:100FB000D76E380ED66EF2949EAAE1EF07F0E3EFFB
:100FC00007F00BEF08F0AECF23F0235091EC0BF0BD
:100FD000430E2318D8A4EFEF07F0F1EF07F0F9EF75
:100FE00007F08150010A8A6E010EAAEC0BF008EF9F
:100FF00008F0440E2318D8A400EF08F002EF08F020
:1010000008EF08F08150020A8A6E000EAAEC0BF07D
:10101000000E236E9E9A5BC0DAFF5AC0D9FF59C0FA
:10102000FBFF58C0FAFF6F921100000E5F6E83CF76
:101030005CF0D8905C325CA020EF08F022EF08F062
:1010400017EF08F0280EE82EFED783CF5CF0D8907B
:101050005C325CB02EEF08F030EF08F042EF08F0A1
:101060005F5007085C6E010E5D6E5C2A3AEF08F077
:10107000D8905D365C2E38EF08F05D50FF0A5E16A2
:1010800051EF08F05F5007085C6E010E5D6E5C2A40
:101090004CEF08F0D8905D365C2E4AEF08F05D50BA
:1010A0005E1283CF5CF0D8905C325CB05AEF08F0EF
:1010B0005CEF08F051EF08F05F2A070E5F6463EF02
:1010C00008F065EF08F017EF08F05E501200000E10
:1010D000646E000E656E000E666E000E676E6050E8
:1010E000611062106310D8B478EF08F07AEF08F05E
:1010F000B0EF08F0010E686E84EF08F0D89060360B
:10110000613662366336682A63AE89EF08F08BEF8A
:1011100008F07EEF08F0D89064366536663667369C
:1011200060505C5C61505D5862505E5863505F581F
:10113000D8A09DEF08F09FEF08F0A8EF08F06050EE
:101140005C5E61505D5A62505E5A63505F5A6480C3
:10115000D8906332623261326032682E8BEF08F0D1
:1011600064C05CF065C05DF066C05EF067C05FF0B3
:101170001200D59E5CC0D9FF5DC0DAFFDF505E6E05
:101180005E3A5E465E46D5505E18BF0B5E18D56E61
:1011900020EE01F05C50D9265D50DA22DF505E6E01
:1011A0005E3A5E46D5505E18DF0B5E18D56E20EEB7
:1011B00003F05C50D9265D50DA22DF505E6E5E4649
:1011C0005E465E46D5505E18F70B5E18D56ED5307C
:1011D000E832E832010B0009D8A4F1EF08F0F3EF90
:1011E00008F000EF09F020EE04F05C50D9265D50C5
:1011F000DA22DF505E6ED5505E18F80B5E18D56EA1
:10120000F28AF184D20ED76E380ED66ED58E1200C9
:10121000A6EC0BF0430E5C6E000E5D6EB9EC08F0B0
:10122000900E5C6E130E5D6EA1EC0BF0360E696EC7
:10123000000E6A6ECBEC05F09350FE0B936E93504C
:10124000FD0B936E95500109956E050E0001C36F5D
:10125000910EC26FCF0EE82EFED7C22FFCD7C32F40
:10126000FAD700D06AEC0AF040EC0BF01F0E000138
:10127000C36F710EC26F1E0EE82EFED7C22FFCD7B1
:10128000C32FFAD700F0000E6B6E000E6C6E3FECB1
:1012900003F043EF09F007EF00F05E6E5C04D8A4A2
:1012A00054EF09F056EF09F05BEF09F0815008099F
:1012B0008A6E5EEF09F08150F70B8A6E5E50F00B7C
:1012C0005F6E81500F0B5F108A6E8150FB0B8A6E30
:1012D000815004098A6E640EE82EFED78150FB0B04
:1012E0008A6E5E38F00B5F6E5FC08AFF8150FB0B29
:1012F0008A6E815004098A6E640EE82EFED78150F2
:10130000FB0B8A6E040E5D6EE40EE82EFED75D2E9A
:10131000FCD700D01200000E6A6E000E6A6EAAEFB3
:1013200009F06A505F24636E000E6020646E63C033
:10133000F6FF64C0F7FFF86A050EF76403D00800F3
:10134000F55005D0F6CFD9FFF7CFDAFFDF5038ECF4
:101350000AF06A2AFF0E636EFF0E646E6150656EBE
:10136000666A63506526645066226A50676E686AD2
:101370006550675C6850800A696E6650800A6958DB
:10138000D8A0C5EF09F0C7EF09F091EF09F01200FE
:101390004CC0D9FF4DC0DAFFDE2A000EDE22DE226D
:1013A000DE224CC0D9FF4DC0DAFFDECF4EF0DECFDB
:1013B0004FF0DECF50F0DECF51F005504E5C526E54
:1013C00006504F58536E07505058546E085051589D
:1013D000556E55505410531009E1050E525CD8A0BB
:1013E000F4EF09F0F6EF09F004EF0AF04CC0D9FF72
:1013F0004DC0DAFFDECF05F0DECF06F0DECF07F01E
:10140000DECF08F0010E276E12001E0EF66E160ECD
:10141000F76E000EF86E00EE80F010EE32F009006C
:10142000F5CFEEFFE550E150FAE1A60EF66E160E8E
:10143000F76E000EF86E00EE28F010EE24F00900B2
:10144000F5CFEEFFE550E150FAE100EEB2F0090E03
:10145000EE6AE806FDE100EE01F0270EEE6AE8060E
:10146000FDE16F906F92000EF86E000108EF09F039
:101470005D6E815008098A6E5D50F00B5E6E815082
:101480000F0B5E108A6E8150FB0B8A6E815004092F
:101490008A6E640EE82EFED78150FB0B8A6E5D3893
:1014A000F00B5E6E81500F0B5E108A6E8150FB0B4D
:1014B0008A6E815004098A6E640EE82EFED7815030
:1014C000FB0B8A6E080E5C6ECA0EE82EFED75C2EF1
:1014D000FCD712004E0E606EEB0EE82EFED7602E8B
:1014E000FCD700F0000E936E200EF5EC0AF0200EF3
:1014F000F5EC0AF0300EF5EC0AF0000E5C6E2C0EE6
:101500004DEC09F0000E5C6E060E4DEC09F0000E7D
:101510005C6E0F0E4DEC09F0000E5C6E010E4DEC92
:1015200009F0080E606ECA0EE82EFED7602EFCD7BA
:10153000120083CF5CF0D8905C325CB0A2EF0AF06E
:10154000A4EF0AF099EF0AF083CF5CF0D8905C32F8
:101550005CA0ADEF0AF0AFEF0AF0A4EF0AF083CF82
:101560005CF0D8905C325CB0B8EF0AF0BAEF0AF0E9
:10157000AFEF0AF01200000E626E000E626ED0EF46
:101580000AF062505D24606E000E5E20616E60C0E5
:10159000F6FF61C0F7FF0800F55086EC0BF0622AF9
:1015A0005F50625CD8A0D7EF0AF0D9EF0AF0C1EF24
:1015B0000AF012000C500D10D8B4E1EF0AF0E3EF7E
:1015C0000AF0F4EF0AF056C04CF057C04DF002D8C4
:1015D000F4EF0AF00500FA6E0C50FD6E0D50FE6E31
:1015E000F850FF6EFA50120012005D6E8150F70B3A
:1015F0008A6E81500F0B5D108A6E815004098A6ECD
:10160000640EE82EFED78150FB0B8A6E040E5C6ED2
:10161000E40EE82EFED75C2EFCD700D01200485511
:101620004D3A200000000000000041542B50494E6C
:1016300058595A570054454D503A200000000000B8
:1016400041542B424155440041542B4E414D4500DD
:101650005D6EF250A6B22FEF0BF031EF0BF02AEFD8
:101660000BF05CC0A9FF5DC0A8FFA69EA69CA68447
:10167000F29E550EA76EAA0EA76EA682F28E1200DB
:10168000000E5E6E5EC05CF0FF0E28EC0BF05E2A72
:101690005E28D8A44EEF0BF050EF0BF042EF0BF0AA
:1016A000000E266E12002300F8435A052548554DBA
:1016B000203A20000000008025000054454D503A9B
:1016C000200000000007010000009550FD0B956E02
:1016D0008350FD0B8C6E4E0E5C6EEB0EE82EFED72B
:1016E0005C2EFCD700F095500209956E12005C6EDE
:1016F000A6B27DEF0BF07FEF0BF078EF0BF05CC044
:10170000A9FFA69EA69CA680A85012005C6E5CC095
:10171000ADFFACA28EEF0BF090EF0BF089EF0BF06A
:1017200012004C6E4CC0ADFFACA299EF0BF09BEFDA
:101730000BF094EF0BF012005D6E5D5086EC0BF039
:1017400012005CC00CF05DC00DF01200D08EF28E65
:10175000F28C12004C6E4CC021F012008350010B31
:06176000120021501200EE
:020000040020DA
:08000000FFFFFFFFFFFFFFFF00
:020000040030CA
:0E000000FF021F1EFF8181FF0FC00FE00F40A7
:00000001FF
