:020000040000FA
:0400000007EF00F016
:1000080001825AED01F045EF01F0000E0001896F01
:1000180087AF0AD0871F861F851F846D000E852332
:1000280086238723010E896F83AF0AD0831F821F1F
:10003800811F806D000E812382238323010E891B7B
:10004800000E8A6F000E8B6F000E8C6F000E8D6F86
:100058008451851186118711D8B42AD0010E886F72
:1000680006D0D8908437853786378737882B87AF6F
:10007800F8D7D8908A378B378C378D378451805D85
:10008800855181598651825987518359D8A009D001
:100098008451805F8551815B8651825B8751835B88
:1000A8008A81D8908733863385338433882FE1D784
:1000B8008951D8B408D08D1F8C1F8B1F8A6D000EF4
:1000C8008B238C238D238AC080F08BC081F08CC059
:1000D80082F08DC083F012009350FE0B936E935004
:1000E800FD0B936E8150FE0B8A6E815002098A6E59
:1000F8006FEC01F09B0E0001806F000E816FC5EC64
:1001080000F0800E00018E6F250E8F6F000E906F2D
:10011800000E916F16EC01F0410E6AEC01F0000E32
:100128000001986F000E976F000198BF03D0985197
:1001380024E11FD0000E00019A6F000E996F000194
:100148009ABF03D09A510DE108D00001994B9A2B20
:1001580000019ABFFAD79A5104E1C80E995DD8A058
:10016800F4D70001974B982B000198BFE3D798511B
:1001780004E1C80E975DD8A0DDD7420E6AEC01F005
:10018800CBD7D59E80C0D9FF81C0DAFFDF500001F0
:10019800826F823B82478247D5508219BF0B8219F2
:1001A800D56E000120EE01F08051D9268151DA2266
:1001B800DF500001826F823B8247D5508219DF0BE6
:1001C8008219D56E000120EE03F08051D9268151A5
:1001D800DA22DF500001826F824782478247D5507A
:1001E8008219F70B8219D56ED530E832E832010B47
:1001F8000009D8A40FD0000120EE04F08051D926C0
:100208008151DA22DF500001826FD5508219F80B34
:100218008219D56EF28AF184D90ED76ED90ED66EB0
:10022800D58E1200800E0001806F960E816F980E99
:10023800826F000E836F8EC092F08FC093F090C0D3
:1002480094F091C095F0060ED8900001923793373C
:1002580094379537E82EF8D792C084F093C085F08C
:1002680094C086F095C087F009EC00F00001800585
:100278000001966F96C0AFFFAC98AB8EAC9CAC8A71
:100288001200E60EF66E020EF76E000EF86E00EE25
:100298009BF010EE05F00900F5CFEEFFE550E150B8
:1002A800FAE101900192000170EF00F00600F2A45B
:1002B8000BD08150010A8A6E8150020A8A6ED90ECB
:1002C800D76ED90ED66EF294019211000001806F9C
:1002D80080C0ADFF1200D08EF28EF28C12000000AA
:0302E8000000070C
:020000040020DA
:08000000FFFFFFFFFFFFFFFF00
:020000040030CA
:0E000000FF021F1EFF8181FF0FC00FE00F40A7
:00000001FF
