:020000040000FA
:0400000007EF00F016
:0A000800638211ED05F024EF08F00B
:100600000053544152545F424C5545544F4F544847
:100610000044485431312054494D454F55540070E1
:1006200072696D2E206C6F67004448543131204F41
:100630004B007365672E206C6F6700410000800ED1
:100640001B6E960E1C6E980E1D6E000E1E6E20EE1A
:1006500003F02850D9262950DA22DECF2AF0DECF47
:100660002BF0DECF2CF0DECF2DF0060ED8902A3600
:100670002B362C362D36E82E36EF03F02AC01FF02D
:100680002BC020F02CC021F02DC022F0AFEC05F0E3
:100690001B500001D76F800E1B6E960E1C6E980EBD
:1006A0001D6E000E1E6E20EE03F02850D926295034
:1006B000DA22DECF2AF0DECF2BF0DECF2CF0DECF39
:1006C0002DF0040ED8902A362B362C362D36E82EF7
:1006D00062EF03F02AC01FF02BC020F02CC021F0E5
:1006E0002DC022F0AFEC05F01B500001D86F800E3A
:1006F0001B6E960E1C6E980E1D6E000E1E6E20EE6A
:1007000003F02850D9262950DA22DECF2AF0DECF96
:100710002BF0DECF2CF0DECF2DF0020ED8902A3653
:100720002B362C362D36E82E8EEF03F02AC01FF024
:100730002BC020F02CC021F02DC022F0AFEC05F032
:100740001B500001D96F20EE03F02850D926295004
:10075000DA22DF502A6E800E1B6E960E1C6E980EEB
:100760001D6E000E1E6ED751400DF3CF2BF0F4CF4F
:100770002CF02BC01FF02CC020F0000E20BEFF0E6E
:10078000216E226EAFEC05F02A501B5C0001D56F84
:1007900020EE03F02850D9262950DA22DF502A6EA5
:1007A000800E1B6E960E1C6E980E1D6E000E1E6E39
:1007B000D851100DF3CF2BF0F4CF2CF02BC01FF03D
:1007C0002CC020F0000E20BEFF0E216E226EAFEC7A
:1007D00005F02A501B5C0001DA6F20EE03F0285070
:1007E000D9262950DA22DF502A6E800E1B6E960E13
:1007F0001C6E980E1D6E000E1E6ED951040DF3CFA7
:100800002BF0F4CF2CF02BC01FF02CC020F0000EEA
:1008100020BEFF0E216E226EAFEC05F02A501B5C4D
:100820000001D66FD5C0DBF0B896AC94D705AF6E9B
:10083000DB51DA5DD8B01FEF04F021EF04F027EFB1
:1008400004F0DAC0DBF0B896AC84D805AF6EDB51AB
:10085000D65DD8B02EEF04F030EF04F034EF04F0A2
:10086000B886AC84D905AF6E20EE02F02850D926A8
:100870002950DA22DF502A6E2A3AAC502A18EF0BA0
:100880002A18AC6EAB8E20EE01F02850D9262950E4
:10089000DA22DE04D8A44FEF04F051EF04F055EF54
:1008A00004F0AC8CAB8C57EF04F0AC9CAB9CAC8AE6
:1008B000AB889D8A120020EE80F010EEE2F00E0E62
:1008C000DBCFE3FFE806FCE220EE8FF010EED5F080
:1008D0000C0EDBCFE3FFE806FCE24850D8B473EF20
:1008E00004F075EF04F00BEF05F0610E3C6E000EA6
:1008F0003D6E5F0E3A6E000E3B6E8BEC09F03F6E64
:100900003F50D8B486EF04F088EF04F0A1EF04F074
:10091000000E1B6E010E50EC06F0110E2D6E3A0EFD
:10092000E82EFED72D2EFCD700D0E20E1E6E000E54
:100930001F6E0F0E206E000E216E0CEC07F007EFFD
:1009400005F088EC09F03E6E3E50D8B4AAEF04F0F2
:10095000ACEF04F0AEEF04F007EF05F04350D8A47D
:10096000B4EF04F0B6EF04F0E3EF04F0000E65EC32
:1009700009F0FF0AD8A4BFEF04F0C1EF04F007EFBD
:1009800005F054EC09F0000E1B6E3B0ED2EC08F0A3
:10099000010E436E000E1B6E010E50EC06F0110EA0
:1009A0002D6E3A0EE82EFED72D2EFCD700D01F0E4E
:1009B0001E6E060E1F6E0A0E206E000E216E0CECCF
:1009C00007F007EF05F04250300F0001F16FF10E14
:1009D000276E000E286E320E296E060E2A6E41EC2E
:1009E00009F0000E1B6EC00E50EC06F0290EE82E2A
:1009F000FED700D0F10E1E6E000E1F6E090E206E87
:100A0000000E216E0CEC07F0422A07EF05F0000EF5
:100A1000486E6DEF04F0835002098C6E6DEF04F0A8
:100A200012000600FACF11F0FBCF12F0E9CF13F05D
:100A3000EACF14F0D9CF15F0DACF16F0F6CF17F0D1
:100A4000F7CF18F0F8CF19F0F5CF1AF0F2A42BEF8A
:100A500005F02DEF05F038EF05F05B0E0B6E000E84
:100A60000C6E0CEC09F0FB0ED76E1E0ED66EF294D7
:100A70009EAA3DEF05F03FEF05F099EF05F0AECFF0
:100A800046F04E0E4524D96EDA6A000EDA2246C0D0
:100A9000DFFF3E0E4618D8B450EF05F052EF05F0D8
:100AA0005DEF05F04E0E4524D96EDA6A000EDA22AB
:100AB00046C0DFFF452A98EF05F04E0E4524D96E5B
:100AC000DA6A000EDA2246C0DFFF000E016E010E68
:100AD0008FEC06F0110E106E3A0EE82EFED7102E97
:100AE000FCD700D04E0E046E000E056E040E066E8E
:100AF000000E076E49EC07F0430E4F18D8A483EFA1
:100B000005F085EF05F08AEF05F0010E84EC09F0A1
:100B100096EF05F0440E4F18D8A491EF05F093EF2F
:100B200005F096EF05F0000E84EC09F0000E456E1E
:100B30009E9A1AC0F5FF19C0F8FF18C0F7FF17C03A
:100B4000F6FF16C0DAFF15C0D9FF14C0EAFF13C0C4
:100B5000E9FF12C0FBFF11C0FAFF63921100000E03
:100B6000236E000E246E000E256E000E266E1F50A2
:100B7000201021102210D8B4C0EF05F0C2EF05F00C
:100B8000F8EF05F0010E276ECCEF05F0D8901F3678
:100B9000203621362236272A22AED1EF05F0D3EFB8
:100BA00005F0C6EF05F0D8902336243625362636D4
:100BB0001F501B5C20501C5821501D5822501E589D
:100BC000D8A0E5EF05F0E7EF05F0F0EF05F01F50D6
:100BD0001B5E20501C5A21501D5A22501E5A238041
:100BE000D8902232213220321F32272ED3EF05F047
:100BF00023C01BF024C01CF025C01DF026C01EF031
:100C00001200D59E1BC0D9FF1CC0DAFFDF501D6E3D
:100C10001D3A1D461D46D5501D18BF0B1D18D56E1B
:100C200020EE01F01B50D9261C50DA22DF501D6E39
:100C30001D3A1D46D5501D18DF0B1D18D56E20EE30
:100C400003F01B50D9261C50DA22DF501D6E1D46C2
:100C50001D461D46D5501D18F70B1D18D56ED530F5
:100C6000E832E832010B0009D8A439EF06F03BEF77
:100C700006F048EF06F020EE04F01B50D9261C5079
:100C8000DA22DF501D6ED5501D18F80B1D18D56ED9
:100C9000F28AF184FB0ED76E1E0ED66ED58E120030
:100CA0001D6E1B04D8A457EF06F059EF06F05EEF57
:100CB00006F0815008098A6E61EF06F08150F70B4B
:100CC0008A6E1D50F00B1E6E81500F0B1E108A6E27
:100CD0008150FB0B8A6E815004098A6E530EE82EF8
:100CE000FED700F08150FB0B8A6E1D38F00B1E6E94
:100CF0001EC08AFF8150FB0B8A6E815004098A6EE8
:100D0000530EE82EFED700F08150FB0B8A6E040EC6
:100D10001C6E3E0EE82EFED71C2EFCD71200036E72
:100D20000104D8A496EF06F098EF06F09DEF06F0C8
:100D3000815008098A6EA0EF06F08150F70B8A6E89
:100D40000350F00B046E81500F0B04108A6E81501B
:100D5000FB0B8A6E815004098A6E530EE82EFED773
:100D600000F08150FB0B8A6E0338F00B046E04C058
:100D70008AFF8150FB0B8A6E815004098A6E530EE4
:100D8000E82EFED700F08150FB0B8A6E040E026E37
:100D90003E0EE82EFED7022EFCD7120001C0D9FF6E
:100DA00002C0DAFFDE2A000EDE22DE22DE2201C0D1
:100DB000D9FF02C0DAFFDECF03F0DECF04F0DECFD2
:100DC00005F0DECF06F03450035C076E3550045852
:100DD000086E36500558096E375006580A6E0A508C
:100DE00009100BE1100E075C270E0858D8A0FBEF86
:100DF00006F0FDEF06F00BEF07F001C0D9FF02C0CF
:100E0000DAFFDECF34F0DECF35F0DECF36F0DECFE6
:100E100037F0010E486E1200000E296E000E296E8A
:100E20002BEF07F029501E24226E000E1F20236E88
:100E300022C0F6FF23C0F7FFF86A050EF76403D05F
:100E40000800F55005D0F6CFE9FFF7CFEAFFEF50E5
:100E500086EC07F0292AFF0E226EFF0E236E20502B
:100E6000246E256A22502426235025222950266EDE
:100E7000276A2450265C2750800A286E2550800A55
:100E80002858D8A046EF07F048EF07F012EF07F018
:100E90001200000E0F6E000E0F6E68EF07F00F507D
:100EA0000424086E000E0520096E08C0F6FF09C074
:100EB000F7FFF86A050EF76403D00800F55005D077
:100EC000F6CFE9FFF7CFEAFFEF50BBEC07F00F2AB0
:100ED000FF0E086EFF0E096E06500A6E0B6A085070
:100EE0000A2609500B220F500C6E0D6A0A500C5C3A
:100EF0000D50800A0E6E0B50800A0E58D8A083EF5A
:100F000007F085EF07F04FEF07F012001C6E8150DD
:100F100008098A6E1C50F00B1D6E81500F0B1D10BE
:100F20008A6E8150FB0B8A6E815004098A6E530EC3
:100F3000E82EFED700F08150FB0B8A6E1C38F00BB8
:100F40001D6E81500F0B1D108A6E8150FB0B8A6E37
:100F5000815004098A6E530EE82EFED700F08150AE
:100F6000FB0B8A6E070E1B6E7D0EE82EFED71B2E26
:100F7000FCD700F01200026E815008098A6E025000
:100F8000F00B036E81500F0B03108A6E8150FB0B28
:100F90008A6E815004098A6E530EE82EFED700F047
:100FA0008150FB0B8A6E0238F00B036E81500F0BE1
:100FB00003108A6E8150FB0B8A6E815004098A6E81
:100FC000530EE82EFED700F08150FB0B8A6E070E01
:100FD000016E7D0EE82EFED7012EFCD700F0120028
:100FE00080EC09F0490E1B6E000E1C6E01EC06F041
:100FF0009C0E1B6E0D0E1C6E7BEC09F0CE0E286E47
:10100000000E296E1FEC03F0040E2F6ECF0E2E6E15
:10101000020EE82EFED72E2EFCD72F2EFAD757EC35
:1010200008F09550FE0B956E9550FD0B956E935004
:101030000109936E000E2B6E000E2C6E5BEC04F01B
:101040001AEF08F007EF00F00E0EF66E110EF76EB5
:10105000000EF86E00EE80F010EE55F00900F5CFAE
:10106000EEFFE550E150FAE1E80EF66E120EF76E73
:10107000000EF86E00EE55F010EE0EF00900F5CF00
:10108000EEFFE550E150FAE100EEF1F0090EEE6AF4
:10109000E806FDE100EE30F0250EEE6AE806FDE11F
:1010A00063906392000EF86E0001F0EF07F0410EBE
:1010B0001F6EEE0EE82EFED71F2EFCD700D0000EBE
:1010C000936E200E27EC09F0200E27EC09F0300E6D
:1010D00027EC09F0000E1B6E2C0E50EC06F0000EF3
:1010E0001B6E060E50EC06F0000E1B6E0F0E50EC41
:1010F00006F0000E1B6E010E50EC06F0070E1F6E80
:101100007D0EE82EFED71F2EFCD700F0120055539F
:10111000455220434F4E45435441444F005553459B
:101120005220444553434F4E4E0048554D3A2000FF
:1011300000000000000041542B50494E58595A57A6
:101140000054454D503A20000000000041542B420D
:101150004155440041542B4E414D45000000008054
:0311600025000067
:1011640021C023F022C024F01FC025F020C026F0A7
:1011740023C0F6FF24C0F7FF234A242A25C0D9FF41
:1011840026C0DAFF254A262A0800F5CFDFFFDF5004
:10119400D8A4CFEF08F0D1EF08F0BAEF08F01200AE
:1011A4001C6E000EF2BE010E1D6EA6B2DCEF08F03E
:1011B400DEEF08F0D7EF08F01BC0A9FF1CC0A8FFA2
:1011C400A69EA69CA684F29E550EA76EAA0EA76E96
:1011D400A6821DB002D0F29E01D0F28E12001BC076
:1011E4001DF01CC01EF0F9EF08F01B4A1C2A1BC09E
:1011F400D9FF1CC0DAFFDF50D8A403EF09F005EFD4
:1012040009F0F7EF08F01D501B5C1B6E1E501C58B4
:101214001C6E120038503910D8B413EF09F015EFD2
:1012240009F026EF09F00BC001F00CC002F002D85F
:1012340026EF09F00500FA6E3850FD6E3950FE6E47
:10124400F850FF6EFA50120012001C6E8150F70B1A
:101254008A6E81500F0B1C108A6E815004098A6EAD
:10126400530EE82EFED700F08150FB0B8A6E040E5D
:101274001B6E3E0EE82EFED71B2EFCD7120027C095
:101284001BF028C01CF0F1EC08F01B5027241F6E43
:101294001C502820206E29C021F02AC022F0B2EC74
:1012A40008F01200000E1E6E1EC01BF0FF0ED2ECE2
:1012B40008F01E2A1E28D8A462EF09F064EF09F092
:1012C40056EF09F012001B6EA6B26BEF09F06DEF3A
:1012D40009F066EF09F01BC0A9FFA69EA69CA68094
:1012E400A8501200000000010101010000005A058D
:1012F40023001BC038F01CC039F01200D08EF28ECF
:10130400F28C1200016E01C044F012008150010BF6
:061314001200445012001B
:020000040020DA
:08000000FFFFFFFFFFFFFFFF00
:020000040030CA
:0E000000FF021F1EFF0181FF0FC00FE00F4027
:00000001FF
