:020000040000FA
:0400000007EF00F016
:0A0008006682E6ED06F03FEF08F017
:10060000004E616F2074656D20656E65726769616B
:10061000004573637265766520656D3A2000446518
:1006200073636F6E65637461646F0054656D2065FC
:100630006E6572676961004E616F2074656D204C54
:100640006F67004572726F2053656E736F72004E54
:10065000616F206520486F72610045786973746529
:10066000204C6F670046554C4C204D454D2E0043A5
:100670006F6E65637461646F00454550524F4D0065
:0B06800044454C415900444543000034
:10068C0020EE80F011EE00F00E0EDBCFE3FFE8065B
:10069C00FCE220EE8FF011EE0FF00C0EDBCFE3FF3F
:1006AC00E806FCE24F50D8B45EEF03F060EF03F0C5
:1006BC00A6EF04F05B0E3C6E000E3D6E630E3A6EC0
:1006CC00000E3B6E8BEC09F0446E4450D8B471EFC5
:1006DC0003F073EF03F0DAEF03F0000E116E010E6E
:1006EC0087EC07F00C0E226EAF0EE82EFED7222EF2
:1006FC00FCD700F06F0E146E060E156E0A0E166EF9
:10070C00000E176EC5EC07F0100E236E390E226E1C
:10071C000E0EE82EFED7222EFCD7232EFAD74850E9
:10072C00D8B49BEF03F09DEF03F0C1EF03F0000E84
:10073C00116E010E87EC07F00C0E226EAF0EE82E38
:10074C00FED7222EFCD700F05A0E146E060E156E34
:10075C000B0E166E000E176EC5EC07F0100E236E06
:10076C00390E226E0E0EE82EFED7222EFCD7232E2B
:10077C00FAD7A2EF04F0000E116E010E87EC07F011
:10078C000C0E226EAF0EE82EFED7222EFCD700F0F8
:10079C00370E146E060E156E0C0E166E000E176EBE
:1007AC00C5EC07F0B4EF03F0000E116E010E87ECF0
:1007BC0007F00C0E226EAF0EE82EFED7222EFCD7C1
:1007CC0000F01E0E146E060E156E0D0E166E000E3B
:1007DC00176EC5EC07F0100E236E390E226E0E0E3E
:1007EC00E82EFED7222EFCD7232EFAD788EC09F060
:1007FC00436E4350D8B405EF04F007EF04F02AEF32
:10080C0004F0000E116E010E87EC07F0140E226E30
:10081C007A0EE82EFED7222EFCD72B0E146E060E67
:10082C00156E0C0E166E000E176EC5EC07F0080E4A
:10083C00236E9D0E226E060EE82EFED7222EFCD7BE
:10084C00232EFAD7A2EF04F0000E116E010E87ECE6
:10085C0007F0140E226E7A0EE82EFED7222EFCD74D
:10086C00010E146E060E156E100E166E000E176E1F
:10087C00C5EC07F0080E236E9D0E226E060EE82EB8
:10088C00FED7222EFCD7232EFAD7090E4E6051EF3D
:10089C0004F053EF04F07EEF04F0000E116E010E25
:1008AC0087EC07F0140E226E7A0EE82EFED7222E5D
:1008BC00FCD7110E146E060E156E0D0E166E000E74
:1008CC00176EC5EC07F0200E72EC08F04E50300F8E
:1008DC0072EC08F04E2A080E236E9D0E226E060E48
:1008EC00E82EFED7222EFCD7232EFAD7A0EF04F049
:1008FC00000E116E010E87EC07F0140E226E7A0EAC
:10090C00E82EFED7222EFCD7650E146E060E156E41
:10091C000A0E166E000E176EC5EC07F0060E236E4F
:10092C00540E226E9D0EE82EFED7222EFCD7232EBF
:10093C00FAD700F0010E486E000E4F6E58EF03F020
:10094C00000E116E010E87EC07F0140E226E7A0E5B
:10095C00E82EFED7222EFCD74F0E146E060E156E07
:10096C000B0E166E000E176EC5EC07F01F0E236EE5
:10097C00710E226E1E0EE82EFED7222EFCD7232ED1
:10098C00FAD700D058EF03F01200000E116E1B0EB8
:10099C00126EB70E136E000E146E20EE03F01E5086
:1009AC00D9261F50DA22DECF20F0DECF21F0DECFA9
:1009BC0022F0DECF23F0060ED890203621362236D8
:1009CC002336E82EE2EF04F020C015F021C016F01B
:1009DC0022C017F023C018F094EC06F01150266ECC
:1009EC00000E116E1B0E126EB70E136E000E146EEF
:1009FC0020EE03F01E50D9261F50DA22DECF20F055
:100A0C00DECF21F0DECF22F0DECF23F0040ED89023
:100A1C002036213622362336E82E0DEF05F020C085
:100A2C0015F021C016F022C017F023C018F094EC7A
:100A3C0006F01150276E000E116E1B0E126EB70EC3
:100A4C00136E000E146E20EE03F01E50D9261F50AC
:100A5C00DA22DECF20F0DECF21F0DECF22F0DECFA7
:100A6C0023F0020ED8902036213622362336E82E7B
:100A7C0038EF05F020C015F021C016F022C017F099
:100A8C0023C018F094EC06F01150286E20EE03F001
:100A9C001E50D9261F50DA22DF50206E000E116E28
:100AAC001B0E126EB70E136E000E146E2650400DF8
:100ABC00F3CF21F0F4CF22F021C015F022C016F0B4
:100ACC00000E16BEFF0E176E186E94EC06F020503A
:100ADC00115C246E20EE03F01E50D9261F50DA2232
:100AEC00DF50206E000E116E1B0E126EB70E136EC1
:100AFC00000E146E2750100DF3CF21F0F4CF22F01E
:100B0C0021C015F022C016F0000E16BEFF0E176E97
:100B1C00186E94EC06F02050115C296E20EE03F058
:100B2C001E50D9261F50DA22DF50206E000E116E97
:100B3C001B0E126EB70E136E000E146E2850040DA1
:100B4C00F3CF21F0F4CF22F021C015F022C016F023
:100B5C00000E16BEFF0E176E186E94EC06F02050A9
:100B6C00115C256E24C02AF0B896AC942604AF6EA6
:100B7C002A50295CD8B0C5EF05F0C7EF05F0CDEFD2
:100B8C0005F029C02AF0B896AC842704AF6E2A5021
:100B9C00255CD8B0D4EF05F0D6EF05F0DAEF05F010
:100BAC00B886AC842804AF6E20EE02F01E50D92615
:100BBC001F50DA22DF50206E203AAC502018EF0B79
:100BCC002018AC6EAB8E20EE01F01E50D9261F50B3
:100BDC00DA22DE04D8A4F5EF05F0F7EF05F0FBEF11
:100BEC0005F0AC8CAB8CFDEF05F0AC9CAB9CAC8AEF
:100BFC00AB889D8A120080EC09F0560E116E000E27
:100C0C00126E38EC07F0040E116E100E126E7BECA7
:100C1C0009F0D50E1E6E000E1F6ECBEC04F0935037
:100C2C00FE0B936E9350FD0B936E95500109956ED0
:100C3C00050E2C6E910E2B6ED00EE82EFED72B2EA1
:100C4C00FCD72C2EFAD7D5EC08F052EC09F0000E9C
:100C5C00116E010E87EC07F00C0E2B6EAF0EE82E0A
:100C6C00FED72B2EFCD700F0790E146E060E156EE7
:100C7C00060E166E000E176EC5EC07F0000E116E08
:100C8C00010E87EC07F00C0E2B6EAF0EE82EFED784
:100C9C002B2EFCD700F0860E146E060E156E040E6D
:100CAC00166E000E176EC5EC07F01F0E2C6E710E33
:100CBC002B6E1E0EE82EFED72B2EFCD72C2EFAD721
:100CCC0000D0000E116E010E87EC07F00C0E2B6E8F
:100CDC00AF0EE82EFED72B2EFCD700F0800E146E34
:100CEC00060E156E060E166E000E176EC5EC07F08E
:100CFC001F0E2C6E710E2B6E1E0EE82EFED72B2E99
:100D0C00FCD72C2EFAD700D0000E206E000E216ED0
:100D1C0046EC03F08AEF06F007EF00F0000E196EB8
:100D2C00000E1A6E000E1B6E000E1C6E1550161067
:100D3C0017101810D8B4A5EF06F0A7EF06F0DDEFEA
:100D4C0006F0010E1D6EB1EF06F0D8901536163672
:100D5C00173618361D2A18AEB6EF06F0B8EF06F0A7
:100D6C00ABEF06F0D89019361A361B361C361550D8
:100D7C00115C165012581750135818501458D8A00C
:100D8C00CAEF06F0CCEF06F0D5EF06F01550115E69
:100D9C001650125A1750135A1850145A1980D890CA
:100DAC0018321732163215321D2EB8EF06F019C054
:100DBC0011F01AC012F01BC013F01CC014F012007A
:100DCC000600FACF0DF0FBCF0EF0D9CF0FF0DACF33
:100DDC0010F0F2A4F4EF06F0F6EF06F001EF07F0D6
:100DEC005F0E0B6E000E0C6E04EC09F0D20ED76E7B
:100DFC00380ED66EF2949EAA06EF07F008EF07F0B5
:100E0C002EEF07F0AECF4BF04B5070EC09F0430EC9
:100E1C004B18D8A414EF07F016EF07F01EEF07F0ED
:100E2C008150010A8A6E010E84EC09F02DEF07F057
:100E3C00440E4B18D8A425EF07F027EF07F02DEF41
:100E4C0007F08150020A8A6E000E84EC09F09E9A1B
:100E5C0010C0DAFF0FC0D9FF0EC0FBFF0DC0FAFFA8
:100E6C0066921100D59E11C0D9FF12C0DAFFDF5077
:100E7C00136E133A13461346D5501318BF0B1318A1
:100E8C00D56E20EE01F01150D9261250DA22DF5027
:100E9C00136E133A1346D5501318DF0B1318D56E77
:100EAC0020EE03F01150D9261250DA22DF50136EC7
:100EBC00134613461346D5501318F70B1318D56E5B
:100ECC00D530E832E832010B0009D8A470EF07F0F6
:100EDC0072EF07F07FEF07F020EE04F01150D926E7
:100EEC001250DA22DF50136ED5501318F80B13186A
:100EFC00D56EF28AF184D20ED76E380ED66ED58EA0
:100F0C001200136E1104D8A48EEF07F090EF07F0C7
:100F1C0095EF07F0815008098A6E98EF07F0815021
:100F2C00F70B8A6E1350F00B146E81500F0B1410CC
:100F3C008A6E8150FB0B8A6E815004098A6E640E96
:100F4C00E82EFED78150FB0B8A6E1338F00B146E13
:100F5C0014C08AFF8150FB0B8A6E815004098A6E83
:100F6C00640EE82EFED78150FB0B8A6E040E126EB7
:100F7C00E40EE82EFED7122EFCD700D01200000E85
:100F8C001F6E000E1F6EE4EF07F01F501424186E36
:100F9C00000E1520196E18C0F6FF19C0F7FFF86A7D
:100FAC00050EF76403D00800F55005D0F6CFE9FF25
:100FBC00F7CFEAFFEF5072EC08F01F2AFF0E186E05
:100FCC00FF0E196E16501A6E1B6A18501A261950FD
:100FDC001B221F501C6E1D6A1A501C5C1D50800A6F
:100FEC001E6E1B50800A1E58D8A0FFEF07F001EFB1
:100FFC0008F0CBEF07F0120001C0D9FF02C0DAFFF6
:10100C00DE2A000EDE22DE22DE2201C0D9FF02C063
:10101C00DAFFDECF03F0DECF04F0DECF05F0DECF5B
:10102C0006F03150035C076E32500458086E335092
:10103C000558096E345006580A6E0A5009100810EB
:10104C0009E1030E075CD8A02EEF08F030EF08F092
:10105C003EEF08F001C0D9FF02C0DAFFDECF31F05D
:10106C00DECF32F0DECF33F0DECF34F0010E4F6E38
:10107C001200480EF66E110EF76E000EF86E00EEB2
:10108C0080F010EE62F00900F5CFEEFFE550E15074
:10109C00FAE1CA0EF66E120EF76E000EF86E00EE46
:1010AC0050F010EE16F00900F5CFEEFFE550E150D0
:1010BC00FAE100EEE2F0090EEE6AE806FDE100EE60
:1010CC002DF0230EEE6AE806FDE166906692000EA6
:1010DC00F86E000101EF06F0126E815008098A6E5D
:1010EC001250F00B136E81500F0B13108A6E81503F
:1010FC00FB0B8A6E815004098A6E640EE82EFED7B3
:10110C008150FB0B8A6E1238F00B136E81500F0B53
:10111C0013108A6E8150FB0B8A6E815004098A6E03
:10112C00640EE82EFED78150FB0B8A6E080E116EF2
:10113C00CA0EE82EFED7112EFCD71200555345527D
:10114C0020434F4E45435441444F00555345522084
:10115C00444553434F4E4E0048554D3A2000000035
:10116C000000000041542B50494E58595A57005416
:10117C00454D503A20000000000041542B4241558F
:10118C00440041542B4E414D450048554D203A20CA
:10119C00000000008025000054454D503A204E0EB2
:1011AC00156EEB0EE82EFED7152EFCD700F0000EB8
:1011BC00936E200E1FEC09F0200E1FEC09F0300E80
:1011CC001FEC09F0000E116E2C0E87EC07F0000ED0
:1011DC00116E060E87EC07F0000E116E0F0E87ECE9
:1011EC0007F0000E116E010E87EC07F0080E156E5D
:1011FC00CA0EE82EFED7152EFCD712003850391027
:10120C00D8B40BEF09F00DEF09F01EEF09F00BC08D
:10121C0001F00CC002F002D81EEF09F00500FA6EC6
:10122C003850FD6E3950FE6EF850FF6EFA501200B9
:10123C001200126E8150F70B8A6E81500F0B121038
:10124C008A6E815004098A6E640EE82EFED7815096
:10125C00FB0B8A6E040E116EE40EE82EFED7112ED7
:10126C00FCD700D01200126EF250A6B240EF09F07B
:10127C0042EF09F03BEF09F011C0A9FF12C0A8FF23
:10128C00A69EA69CA684F29E550EA76EAA0EA76ECD
:10129C00A682F28E4E2A1200000E136E13C011F0AD
:1012AC00FF0E39EC09F0132A1328D8A460EF09F0CB
:1012BC0062EF09F054EF09F0000E4E6E1200302E62
:1012CC0030302E3000000000072300F843010000EE
:1012DC00005A0525016E01C0ADFFACA278EF09F0F4
:1012EC007AEF09F073EF09F0120011C038F012C058
:1012FC0039F01200D08EF28EF28C1200016E01C009
:0E130C0049F012008350010B120049501200EC
:020000040020DA
:08000000FFFFFFFFFFFFFFFF00
:020000040030CA
:0E000000FF021F1EFF8181FF0FC00FE00F40A7
:00000001FF
