:020000040000FA
:0400000007EF00F016
:0A000800558209ED06F02BEF06F01B
:100600000053544152545F424C5545544F4F544847
:10061000004E4154414E204D4152515545530041E9
:10062000540D0031003200330034003500360037FD
:1006300000380000800E296E960E2A6E980E2B6EE2
:10064000000E2C6E20EE03F03650D9263750DA22F9
:10065000DECF38F0DECF39F0DECF3AF0DECF3BF040
:10066000060ED890383639363A363B36E82E31EF1A
:1006700003F038C02DF039C02EF03AC02FF03BC047
:1006800030F050EC04F029503E6E800E296E960E2C
:100690002A6E980E2B6E000E2C6E20EE03F0365054
:1006A000D9263750DA22DECF38F0DECF39F0DECF70
:1006B0003AF0DECF3BF0040ED890383639363A3671
:1006C0003B36E82E5CEF03F038C02DF039C02EF039
:1006D0003AC02FF03BC030F050EC04F029503F6E90
:1006E000800E296E960E2A6E980E2B6E000E2C6EC2
:1006F00020EE03F03650D9263750DA22DECF38F01C
:10070000DECF39F0DECF3AF0DECF3BF0020ED890EC
:10071000383639363A363B36E82E87EF03F038C0A4
:100720002DF039C02EF03AC02FF03BC030F050EC25
:1007300004F02950406E20EE03F03650D926375091
:10074000DA22DF50386E800E296E960E2A6E980ED1
:100750002B6E000E2C6E3E50400DF3CF39F0F4CFCF
:100760003AF039C02DF03AC02EF0000E2EBEFF0E2A
:100770002F6E306E50EC04F03850295C3C6E20EE49
:1007800003F03650D9263750DA22DF50386E800E0B
:10079000296E960E2A6E980E2B6E000E2C6E3F5010
:1007A000100DF3CF39F0F4CF3AF039C02DF03AC044
:1007B0002EF0000E2EBEFF0E2F6E306E50EC04F0A9
:1007C0003850295C416E20EE03F03650D926375060
:1007D000DA22DF50386E800E296E960E2A6E980E41
:1007E0002B6E000E2C6E4050040DF3CF39F0F4CF79
:1007F0003AF039C02DF03AC02EF0000E2EBEFF0E9A
:100800002F6E306E50EC04F03850295C3D6E3CC0C9
:1008100042F0B896AC943E04AF6E4250415CD8B002
:1008200014EF04F016EF04F01CEF04F041C042F0A6
:10083000B896AC843F04AF6E42503D5CD8B023EF15
:1008400004F025EF04F029EF04F0B886AC844004EE
:10085000AF6E20EE02F03650D9263750DA22DF5044
:10086000386E383AAC503818EF0B3818AC6EAB8E87
:1008700020EE01F03650D9263750DA22DE04D8A413
:1008800044EF04F046EF04F04AEF04F0AC8CAB8C7C
:100890004CEF04F0AC9CAB9CAC8AAB889D8A1200F8
:1008A000000E316E000E326E000E336E000E346E8E
:1008B0002D502E102F103010D8B461EF04F063EFDC
:1008C00004F099EF04F0010E356E6DEF04F0D8904E
:1008D0002D362E362F363036352A30AE72EF04F0F4
:1008E00074EF04F067EF04F0D890313632363336C7
:1008F00034362D50295C2E502A582F502B5830500A
:100900002C58D8A086EF04F088EF04F091EF04F0A3
:100910002D50295E2E502A5A2F502B5A30502C5AC7
:100920003180D89030322F322E322D32352E74EF66
:1009300004F031C029F032C02AF033C02BF034C0AB
:100940002CF012001C0E366E000E376E1AEC03F0FF
:10095000F2EC04F01F0E296E060E2A6E040E2B6EAA
:10096000DCEC05F00D0E446EAF0E436EB60EE82EB5
:10097000FED7432EFCD7442EFAD700D00D0E446E7E
:10098000AF0E436EB60EE82EFED7432EFCD7442E94
:10099000FAD700D00D0E446EAF0E436EB60EE82EA1
:1009A000FED7432EFCD7442EFAD700D00D0E446E4E
:1009B000AF0E436EB60EE82EFED7432EFCD7442E64
:1009C000FAD700D00D0E446EAF0E436EB60EE82E71
:1009D000FED7432EFCD7442EFAD700D0AAEF04F05E
:1009E00007EF00F0410E386EEE0EE82EFED7382EDF
:1009F000FCD700D0000E936E200E48EC06F0200EBF
:100A000048EC06F0300E48EC06F0000E296E2C0E75
:100A100035EC05F0000E296E060E35EC05F0000EE3
:100A2000296E0F0E35EC05F0000E296E010E35EC27
:100A300005F0070E386E7D0EE82EFED7382EFCD757
:100A400000F0000E296EC00E35EC05F0290EE82EE0
:100A5000FED700D0110E2C6E060E2D6E0E0E2E6ED1
:100A6000400E2F6EA9EC05F012002B6E2904D8A4BD
:100A70003CEF05F03EEF05F043EF05F0815008092B
:100A80008A6E46EF05F08150F70B8A6E2B50F00B03
:100A90002C6E81500F0B2C108A6E8150FB0B8A6ECE
:100AA000815004098A6E530EE82EFED700F0815063
:100AB000FB0B8A6E2B38F00B2C6E2CC08AFF8150FA
:100AC000FB0B8A6E815004098A6E530EE82EFED706
:100AD00000F08150FB0B8A6E040E2A6E3E0EE82E4B
:100AE000FED72A2EFCD712002A6E815008098A6E82
:100AF0002A50F00B2B6E81500F0B2B108A6E8150F9
:100B0000FB0B8A6E815004098A6E530EE82EFED7C5
:100B100000F08150FB0B8A6E2A38F00B2B6E81504F
:100B20000F0B2B108A6E8150FB0B8A6E81500409CB
:100B30008A6E530EE82EFED700F08150FB0B8A6EB2
:100B4000070E296E7D0EE82EFED7292EFCD700F069
:100B50001200000E376E000E376EBEEF05F03750F4
:100B60002C24306E000E2D20316E30C0F6FF31C0C7
:100B7000F7FF0800F55074EC05F0372AFF0E306ED1
:100B8000FF0E316E2E50326E336A305032263150A5
:100B900033223750346E356A3250345C3550800A17
:100BA000366E3350800A3658D8A0D9EF05F0DBEF07
:100BB00005F0AFEF05F01200000E2E6EFFEF05F00E
:100BC0002E5029242C6E000E2A202D6E2CC0F6FFEC
:100BD0002DC0F7FFF86A050EF76403D00800F55042
:100BE00005D0F6CFE9FFF7CFEAFFEF50AD6EACA22C
:100BF000FCEF05F0FEEF05F0F7EF05F02E2A2B5085
:100C00002E5CD8A006EF06F008EF06F0E0EF05F046
:100C100012000600F2A40FEF06F011EF06F01CEF31
:100C200006F0230E276E000E286E80EC06F0FB0EF9
:100C3000D76E1E0ED66EF2949EAA21EF06F023EF19
:100C400006F029EF06F0AECF54F0545075EC06F0E4
:100C50009E9A55921100C40EF66E0C0EF76E000EA1
:100C6000F86E00EE01F010EE26F00900F5CFEEFF71
:100C7000E550E150FAE100EE45F0100EEE6AE806AC
:100C8000FDE155905592000EF86E0001A2EF04F0C0
:100C90002A6E8150F70B8A6E81500F0B2A108A6ED4
:100CA000815004098A6E530EE82EFED700F0815061
:100CB000FB0B8A6E040E296E3E0EE82EFED7292EFF
:100CC000FCD7120041542B50494E58595A570041F5
:100CD000542B4E414D450041542B42415544000098
:100CE00000008025000001000000276E27C0ADFF36
:100CF000ACA27DEF06F07FEF06F078EF06F0120071
:020D00001200DF
:020000040020DA
:08000000FFFFFFFFFFFFFFFF00
:020000040030CA
:0E000000FF021F1EFF8181FF0FC00FE00F40A7
:00000001FF
