:020000040000FA
:0400000007EF00F016
:0A000800558249ED06F08BEF06F07B
:1006000000414341424F55204553534120504F48EC
:10061000410053544152545F424C5545544F4F543E
:10062000480041540D0031003200330034003500E1
:07063000360037003800001E
:10063800800E296E960E2A6E980E2B6E000E2C6E6A
:1006480020EE03F03650D9263750DA22DECF38F0C4
:10065800DECF39F0DECF3AF0DECF3BF0060ED89091
:10066800383639363A363B36E82E33EF03F038C0A1
:100678002DF039C02EF03AC02FF03BC030F052ECCC
:1006880004F029503E6E800E296E960E2A6E980E42
:100698002B6E000E2C6E20EE03F03650D926375004
:1006A800DA22DECF38F0DECF39F0DECF3AF0DECF17
:1006B8003BF0040ED890383639363A363B36E82EB9
:1006C8005EEF03F038C02DF039C02EF03AC02FF09D
:1006D8003BC030F052EC04F029503F6E800E296E7A
:1006E800960E2A6E980E2B6E000E2C6E20EE03F0DE
:1006F8003650D9263750DA22DECF38F0DECF39F03F
:10070800DECF3AF0DECF3BF0020ED89038363936DD
:100718003A363B36E82E89EF03F038C02DF039C061
:100728002EF03AC02FF03BC030F052EC04F02950C4
:10073800406E20EE03F03650D9263750DA22DF50CB
:10074800386E800E296E960E2A6E980E2B6E000E4D
:100758002C6E3E50400DF3CF39F0F4CF3AF039C04B
:100768002DF03AC02EF0000E2EBEFF0E2F6E306E0A
:1007780052EC04F03850295C3C6E20EE03F0365001
:10078800D9263750DA22DF50386E800E296E960E41
:100798002A6E980E2B6E000E2C6E3F50100DF3CF64
:1007A80039F0F4CF3AF039C02DF03AC02EF0000EEF
:1007B8002EBEFF0E2F6E306E52EC04F03850295CBE
:1007C800416E20EE03F03650D9263750DA22DF503A
:1007D800386E800E296E960E2A6E980E2B6E000EBD
:1007E8002C6E4050040DF3CF39F0F4CF3AF039C0F5
:1007F8002DF03AC02EF0000E2EBEFF0E2F6E306E7A
:1008080052EC04F03850295C3D6E3CC042F0B8967A
:10081800AC943E04AF6E4250415CD8B016EF04F081
:1008280018EF04F01EEF04F041C042F0B896AC8413
:100838003F04AF6E42503D5CD8B025EF04F027EF7F
:1008480004F02BEF04F0B886AC844004AF6E20EEC1
:1008580002F03650D9263750DA22DF50386E383A4F
:10086800AC503818EF0B3818AC6EAB8E20EE01F098
:100878003650D9263750DA22DE04D8A446EF04F0E1
:1008880048EF04F04CEF04F0AC8CAB8C4EEF04F066
:10089800AC9CAB9CAC8AAB889D8A1200000E316E72
:1008A800000E326E000E336E000E346E2D502E1078
:1008B8002F103010D8B463EF04F065EF04F09BEF0D
:1008C80004F0010E356E6FEF04F0D8902D362E36F9
:1008D8002F363036352A30AE74EF04F076EF04F058
:1008E80069EF04F0D89031363236333634362D502D
:1008F800295C2E502A582F502B5830502C58D8A0ED
:1009080088EF04F08AEF04F093EF04F02D50295E8D
:100918002E502A5A2F502B5A30502C5A3180D890AA
:1009280030322F322E322D32352E76EF04F031C090
:1009380029F032C02AF033C02BF034C02CF012005A
:100948002B6E2904D8A4ABEF04F0ADEF04F0B2EF9E
:1009580004F0815008098A6EB5EF04F08150F70B56
:100968008A6E2B50F00B2C6E81500F0B2C108A6E58
:100978008150FB0B8A6E815004098A6E530EE82E53
:10098800FED700F08150FB0B8A6E2B38F00B2C6ED3
:100998002CC08AFF8150FB0B8A6E815004098A6E35
:1009A800530EE82EFED700F08150FB0B8A6E040E22
:1009B8002A6E3E0EE82EFED72A2EFCD712002A6E8B
:1009C800815008098A6E2A50F00B2B6E81500F0B4C
:1009D8002B108A6E8150FB0B8A6E815004098A6E37
:1009E800530EE82EFED700F08150FB0B8A6E2A3892
:1009F800F00B2B6E81500F0B2B108A6E8150FB0B66
:100A08008A6E815004098A6E530EE82EFED700F0D4
:100A18008150FB0B8A6E070E296E7D0EE82EFED7DD
:100A2800292EFCD700F01200000E376E000E376E2C
:100A38002DEF05F037502C24306E000E2D20316E2E
:100A480030C0F6FF31C0F7FF0800F550E3EC04F0C2
:100A5800372AFF0E306EFF0E316E2E50326E336A1B
:100A680030503226315033223750346E356A325086
:100A7800345C3550800A366E3350800A3658D8A018
:100A880048EF05F04AEF05F01EEF05F012001C0EC6
:100A9800366E000E376E1CEC03F0000E396E000E39
:100AA8003A6E02EC06F0220E296E060E2A6E040E2D
:100AB8002B6EABEC05F00D0E446EAF0E436EB60E0A
:100AC800E82EFED7432EFCD7442EFAD700D00D0EC1
:100AD800446EAF0E436EB60EE82EFED7432EFCD7FB
:100AE800442EFAD700D057EF05F007EF00F0410E7B
:100AF8002D6EEE0EE82EFED72D2EFCD700D0000E60
:100B0800936E200EC3EC06F0200EC3EC06F0300EF8
:100B1800C3EC06F0000E296E2C0EA4EC04F0000EB7
:100B2800296E060EA4EC04F0000E296E0F0EA4EC3C
:100B380004F0000E296E010EA4EC04F0070E2D6ED1
:100B48007D0EE82EFED72D2EFCD700F01200000EE9
:100B58002E6ECEEF05F02E5029242C6E000E2A2082
:100B68002D6E2CC0F6FF2DC0F7FFF86A050EF7644E
:100B780003D00800F55005D0F6CFE9FFF7CFEAFF1C
:100B8800EF50AD6EACA2CBEF05F0CDEF05F0C6EFA0
:100B980005F02E2A2B502E5CD8A0D5EF05F0D7EF04
:100BA80005F0AFEF05F0120023C04AF024C04BF067
:100BB80025C04CF026C04DF04A50235C2B6E4B509C
:100BC80024582C6E4C5025582D6E4D5026582E6E9C
:100BD80029502F6E2A50306E316A326A2B502F5CA2
:100BE8002C5030582D5031582E503258D8B0FFEF75
:100BF80005F001EF06F0E0EF05F01200000E296E97
:100C0800000E2A6E27EC06F07BEC05F0120E2C6E17
:100C1800060E2D6E100E2E6E000E2F6E18EC05F0BF
:100C28000EEC07F00B0E2A6EB80E296ED8EC05F004
:100C3800010E2C6E060E2D6E110E2E6E000E2F6EEE
:100C480018EC05F012009350FE0B936E9350FD0BB9
:100C5800936E9350EF0B936E9350DF0B936E9350FC
:100C6800BF0B936E93507F0B936E9350F70B936E5D
:100C78009350FB0B936E9450BF0B946E94507F0B64
:100C8800946E9550FE0B956E12000600F2A44FEF7D
:100C980006F051EF06F05CEF06F0230E276E000E0B
:100CA800286E0FEC07F0FB0ED76E1E0ED66EF29470
:100CB8009EAA61EF06F063EF06F069EF06F0AECF8B
:100CC80054F0545003EC07F09E9A559211002FC02F
:100CD80031F030C032F02DC033F02EC034F031C0C6
:100CE800F6FF32C0F7FF314A322A33C0D9FF34C089
:100CF800DAFF334A342A0800F5CFDFFFDF50D8A4E3
:100D080088EF06F08AEF06F073EF06F01200BA0ECD
:100D1800F66E0D0EF76E000EF86E00EE01F010EE96
:100D280026F00900F5CFEEFFE550E150FAE100EEBC
:100D380045F0100EEE6AE806FDE155905592000E5A
:100D4800F86E00014BEF05F029C02BF02AC02CF0FB
:100D5800B0EF06F0294A2A2A29C0D9FF2AC0DAFFAB
:100D6800DF50D8A4BAEF06F0BCEF06F0AEEF06F0FD
:100D78002B50295C296E2C502A582A6E12002A6E94
:100D88008150F70B8A6E81500F0B2A108A6E8150A2
:100D980004098A6E530EE82EFED700F08150FB0B33
:100DA8008A6E040E296E3E0EE82EFED7292EFCD739
:100DB800120041542B50494E58595A570041542B50
:100DC8004E414D450041542B42415544000000001E
:100DD800802500000100000035C029F036C02AF047
:100DE800A8EC06F0295035242D6E2A5036202E6E98
:100DF80037C02FF038C030F06BEC06F01200276EC9
:100E080027C0ADFFACA20BEF07F00DEF07F006EF20
:080E180007F0120012001200A5
:020000040020DA
:08000000FFFFFFFFFFFFFFFF00
:020000040030CA
:0E000000FF021F1EFF8181FF0FC00FE00F40A7
:00000001FF
