:020000040000FA
:0400000007EF00F016
:0A000800648215ED05F09CEF09F08D
:100600000053544152545F424C5545544F4F544847
:100610000044485431312054494D454F55540054FD
:10062000454D20454E4552474941004448543131DB
:05063000204F4B00000B
:10063600800E1B6E960E1C6E980E1D6E000E1E6EA4
:1006460020EE03F02850D9262950DA22DECF2AF0F0
:10065600DECF2BF0DECF2CF0DECF2DF0060ED890BD
:100666002A362B362C362D36E82E32EF03F02AC0EA
:100676001FF02BC020F02CC021F02DC022F0EDEC95
:1006860006F01B50306E800E1B6E960E1C6E980E7A
:100696001D6E000E1E6E20EE03F02850D92629503E
:1006A600DA22DECF2AF0DECF2BF0DECF2CF0DECF43
:1006B6002DF0040ED8902A362B362C362D36E82E01
:1006C6005DEF03F02AC01FF02BC020F02CC021F0F4
:1006D6002DC022F0EDEC06F01B50316E800E1B6E25
:1006E600960E1C6E980E1D6E000E1E6E20EE03F00A
:1006F6002850D9262950DA22DECF2AF0DECF2BF079
:10070600DECF2CF0DECF2DF0020ED8902A362B3617
:100716002C362D36E82E88EF03F02AC01FF02BC0AA
:1007260020F02CC021F02DC022F0EDEC06F01B507D
:10073600326E20EE03F02850D9262950DA22DF50F7
:100746002A6E800E1B6E960E1C6E980E1D6E000E87
:100756001E6E3050400DF3CF2BF0F4CF2CF02BC093
:100766001FF02CC020F0000E20BEFF0E216E226E60
:10077600EDEC06F02A501B5C2E6E20EE03F028509E
:10078600D9262950DA22DF502A6E800E1B6E960E6D
:100796001C6E980E1D6E000E1E6E3150100DF3CF9E
:1007A6002BF0F4CF2CF02BC01FF02CC020F0000E45
:1007B60020BEFF0E216E226EEDEC06F02A501B5C69
:1007C600336E20EE03F02850D9262950DA22DF5066
:1007D6002A6E800E1B6E960E1C6E980E1D6E000EF7
:1007E6001E6E3250040DF3CF2BF0F4CF2CF02BC03D
:1007F6001FF02CC020F0000E20BEFF0E216E226ED0
:10080600EDEC06F02A501B5C2F6E2EC034F0B89625
:10081600AC943004AF6E3450335CD8B015EF04F0AE
:1008260017EF04F01DEF04F033C034F0B896AC8433
:100836003104AF6E34502F5CD8B024EF04F026EFAD
:1008460004F02AEF04F0B886AC843204AF6E20EED2
:1008560002F02850D9262950DA22DF502A6E2A3A89
:10086600AC502A18EF0B2A18AC6EAB8E20EE01F0B6
:100876002850D9262950DA22DE04D8A445EF04F000
:1008860047EF04F04BEF04F0AC8CAB8C4DEF04F06B
:10089600AC9CAB9CAC8AAB889D8A120020EE80F0A3
:1008A60011EE0DF00E0EDBCFE3FFE806FCE220EEC4
:1008B6008FF011EE00F00C0EDBCFE3FFE806FCE252
:1008C6004F50D8B469EF04F06BEF04F00FEF05F06A
:1008D600E80E416E000E426E610E3F6E000E406ED7
:1008E6008DEC0AF0466E4650D8B47CEF04F07EEFED
:1008F60004F097EF04F0000E1B6E010E8EEC07F06D
:10090600110E316E3A0EE82EFED7312EFCD700D0EE
:100916000D0E1E6E010E1F6E0F0E206E000E216E46
:100926004AEC08F00BEF05F08AEC0AF0456E4550EC
:10093600D8B4A0EF04F0A2EF04F0BBEF04F0000E71
:100946001B6E010E8EEC07F0110E316E3A0EE82E7C
:10095600FED7312EFCD700D01F0E1E6E060E1F6E60
:100966000C0E206E000E216E4AEC08F00BEF05F01F
:1009760041C0D9FF42C0DAFFDF505E6E414A422ACB
:1009860041C0D9FF42C0DAFFDF50606E3FC0D9FFD9
:1009960040C0DAFFDF505B6E3F4A402A3FC0D9FFB6
:1009A60040C0DAFFDF505D6E5E0E2A6E000E2B6EC3
:1009B6005B0E2C6E000E2D6EB3EC05F04A50D8A4DB
:1009C600E7EF04F0E9EF04F0FFEF04F0000E67EC48
:1009D6000AF0FF0AD8A4F2EF04F0F4EF04F00BEFEC
:1009E60005F054EC0AF0000E1B6E290EFFEC09F020
:1009F600010E4A6E0BEF05F04EC01BF05E50FFEC89
:100A060009F04EC01BF05B50FFEC09F00BEF05F050
:100A1600000E4F6E63EF04F0835002098C6E63EF95
:100A260004F012000600FACF11F0FBCF12F0E9CF66
:100A360013F0EACF14F0D9CF15F0DACF16F0F6CFCF
:100A460017F0F7CF18F0F8CF19F0F5CF1AF0F2A497
:100A56002FEF05F031EF05F03CEF05F0570E0B6E6A
:100A6600000E0C6E1FEC0AF0FB0ED76E1E0ED66E35
:100A7600F2949EAA41EF05F043EF05F09DEF05F0D5
:100A8600AECF4DF0500E4C24D96EDA6A000EDA2243
:100A96004DC0DFFF3E0E4D18D8B454EF05F056EFAB
:100AA60005F061EF05F0500E4C24D96EDA6A000E9F
:100AB600DA224DC0DFFF4C2A9CEF05F0500E4C2485
:100AC600D96EDA6A000EDA224DC0DFFF000E016E23
:100AD600010ECDEC07F0110E106E3A0EE82EFED781
:100AE600102EFCD700D0500E046E000E056E040EBC
:100AF600066E000E076E87EC08F0430E5118D8A458
:100B060087EF05F089EF05F08EEF05F0010E86EC14
:100B16000AF09AEF05F0440E5118D8A495EF05F0A7
:100B260097EF05F09AEF05F0000E86EC0AF0000E3E
:100B36004C6E9E9A1AC0F5FF19C0F8FF18C0F7FF51
:100B460017C0F6FF16C0DAFF15C0D9FF14C0EAFFBA
:100B560013C0E9FF12C0FBFF11C0FAFF6492110037
:100B6600000E1B6E010E8EEC07F0110E2E6E3A0E65
:100B7600E82EFED72E2EFCD700D0E20E1E6E000EFB
:100B86001F6E060E206E000E216E4AEC08F02AC07B
:100B9600D9FF2BC0DAFFDF502E6E2E501B6E1C6A5B
:100BA600000E1E6E0A0E1D6E33EC06F01B50300F43
:100BB60032EC09F02AC0D9FF2BC0DAFFDF502E6EC7
:100BC6002E501B6E1C6A000E1E6E0A0E1D6E95ECD4
:100BD60006F01B50300F32EC09F0DF0E32EC09F054
:100BE600430E32EC09F0000E1B6EC00E8EEC07F0C1
:100BF600FA0E00D0E82EFDD7D40E1E6E000E1F6E24
:100C0600070E206E000E216E4AEC08F02CC0D9FFAC
:100C16002DC0DAFFDF502E6E2E501B6E1C6A000EA2
:100C26001E6E0A0E1D6E33EC06F01B50300F32ECB2
:100C360009F02CC0D9FF2DC0DAFFDF502E6E2E50E2
:100C46001B6E1C6A000E1E6E0A0E1D6E95EC06F0DB
:100C56001B50300F32EC09F0250E32EC09F0120071
:100C6600000E206E1EBE3CEF06F03AEF06F042EF95
:100C760006F01D6C1E1ED8B01E2A010E206E1CBE6C
:100C860049EF06F047EF06F04FEF06F01B6C1C1E0F
:100C9600D8B01C2A010E201A000E226E000E216EFC
:100CA6001D501E10D8B45AEF06F05CEF06F084EF24
:100CB60006F0010E1F6E64EF06F0D8901D361E3644
:100CC6001F2A1EAE69EF06F06BEF06F060EF06F026
:100CD600D890213622361D501B5C1E501C58D8A0B9
:100CE60077EF06F079EF06F07EEF06F01D501B5EFB
:100CF6001E501C5A2180D8901E321D321F2E6BEFBB
:100D060006F02050D8B48AEF06F08CEF06F090EF8C
:100D160006F0216C221ED8B0222A21C01BF022C068
:100D26001CF01200000E206E1CBE9EEF06F09CEF1B
:100D360006F0A4EF06F01B6C1C1ED8B01C2A010E90
:100D4600206E1EBEABEF06F0A9EF06F0AFEF06F081
:100D56001D6C1E1ED8B01E2A1D501E10D8B4B6EF2C
:100D660006F0B8EF06F0DCEF06F0010E1F6EC0EFDE
:100D760006F0D8901D361E361F2A1EAEC5EF06F0A9
:100D8600C7EF06F0BCEF06F01D501B5C1E501C584A
:100D9600D8A0D0EF06F0D2EF06F0D6EF06F01D5041
:100DA6001B5E1E501C5AD8901E321D321F2EC7EFD6
:100DB60006F02050D8B4E2EF06F0E4EF06F0E8EFD4
:100DC60006F01B6C1C1ED8B01C2A1BC01BF01CC0D6
:100DD6001CF01200000E236E000E246E000E256E0F
:100DE600000E266E1F50201021102210D8B4FEEFE0
:100DF60006F000EF07F036EF07F0010E276E0AEF58
:100E060007F0D8901F36203621362236272A22AE02
:100E16000FEF07F011EF07F004EF07F0D890233635
:100E26002436253626361F501B5C20501C58215070
:100E36001D5822501E58D8A023EF07F025EF07F0C3
:100E46002EEF07F01F501B5E20501C5A21501D5AD2
:100E560022501E5A2380D8902232213220321F324D
:100E6600272E11EF07F023C01BF024C01CF025C06D
:100E76001DF026C01EF01200D59E1BC0D9FF1CC057
:100E8600DAFFDF501D6E1D3A1D461D46D5501D1852
:100E9600BF0B1D18D56E20EE01F01B50D9261C5035
:100EA600DA22DF501D6E1D3A1D46D5501D18DF0B88
:100EB6001D18D56E20EE03F01B50D9261C50DA22E1
:100EC600DF501D6E1D461D461D46D5501D18F70BDD
:100ED6001D18D56ED530E832E832010B0009D8A4CA
:100EE60077EF07F079EF07F086EF07F020EE04F0D2
:100EF6001B50D9261C50DA22DF501D6ED5501D1806
:100F0600F80B1D18D56EF28AF184FB0ED76E1E0EF5
:100F1600D66ED58E12001D6E1B04D8A495EF07F071
:100F260097EF07F09CEF07F0815008098A6E9FEF54
:100F360007F08150F70B8A6E1D50F00B1E6E815024
:100F46000F0B1E108A6E8150FB0B8A6E81500409AE
:100F56008A6E530EE82EFED700F08150FB0B8A6E88
:100F66001D38F00B1E6E1EC08AFF8150FB0B8A6E69
:100F7600815004098A6E530EE82EFED700F0815088
:100F8600FB0B8A6E040E1C6E3E0EE82EFED71C2E40
:100F9600FCD71200036E0104D8A4D4EF07F0D6EFF5
:100FA60007F0DBEF07F0815008098A6EDEEF07F0E5
:100FB6008150F70B8A6E0350F00B046E81500F0BB5
:100FC60004108A6E8150FB0B8A6E815004098A6E6A
:100FD600530EE82EFED700F08150FB0B8A6E0338C5
:100FE600F00B046E04C08AFF8150FB0B8A6E8150A1
:100FF60004098A6E530EE82EFED700F08150FB0BD3
:101006008A6E040E026E3E0EE82EFED7022EFCD726
:10101600120001C0D9FF02C0DAFFDE2A000EDE226E
:10102600DE22DE2201C0D9FF02C0DAFFDECF03F0E6
:10103600DECF04F0DECF05F0DECF06F03950035CDC
:10104600076E3A500458086E3B500558096E3C50DE
:1010560006580A6E0A5009100BE12C0E075C010EA9
:101066000858D8A039EF08F03BEF08F049EF08F030
:1010760001C0D9FF02C0DAFFDECF39F0DECF3AF089
:10108600DECF3BF0DECF3CF0010E4F6E1200000EBD
:10109600296E000E296E69EF08F029501E24226E73
:1010A600000E1F20236E22C0F6FF23C0F7FFF86A4A
:1010B600050EF76403D00800F55005D0F6CFE9FF1A
:1010C600F7CFEAFFEF5032EC09F0292AFF0E226E25
:1010D600FF0E236E2050246E256A225024262350AC
:1010E60025222950266E276A2450265C2750800A1E
:1010F600286E2550800A2858D8A084EF08F086EF7D
:1011060008F050EF08F01200000E0F6E000E0F6E82
:10111600A6EF08F00F500424086E000E0520096E95
:1011260008C0F6FF09C0F7FFF86A050EF76403D09A
:101136000800F55005D0F6CFE9FFF7CFEAFFEF50EC
:1011460067EC09F00F2AFF0E086EFF0E096E0650B7
:101156000A6E0B6A08500A2609500B220F500C6EB5
:101166000D6A0A500C5C0D50800A0E6E0B50800AF8
:101176000E58D8A0C1EF08F0C3EF08F08DEF08F0C5
:10118600120082EC0AF0F50E1B6E000E1C6E3FEC90
:1011960007F0180E1B6E100E1C6E7DEC0AF0DB0EAF
:1011A600286E000E296E1BEC03F0040E0001FB6F87
:1011B600CF0EFA6F010EE82EFED7FA2FFCD7FB2FC3
:1011C600FAD700D0CFEC09F054EC0AF09550FE0B9C
:1011D600956E9550FD0B956E93500109936E000E1A
:1011E6002F6E000E306E51EC04F0F2EF08F007EFB0
:1011F60000F05553455220434F4E45435441444F0A
:10120600005553455220444553434F4E4E004855D2
:101216004D3A200000000000000041542B50494E7A
:1012260058595A570054454D503A200000000000C6
:1012360041542B424155440041542B4E414D4500EB
:1012460000000001010148554D203A200000000031
:101256008025000054454D503A202300F8431C6E6B
:10126600815008098A6E1C50F00B1D6E81500F0BC1
:101276001D108A6E8150FB0B8A6E815004098A6E9E
:10128600530EE82EFED700F08150FB0B8A6E1C38F9
:10129600F00B1D6E81500F0B1D108A6E8150FB0BDB
:1012A6008A6E815004098A6E530EE82EFED700F02E
:1012B6008150FB0B8A6E070E1B6E7D0EE82EFED745
:1012C6001B2EFCD700F01200026E815008098A6EB0
:1012D6000250F00B036E81500F0B03108A6E815083
:1012E600FB0B8A6E815004098A6E530EE82EFED7D8
:1012F60000F08150FB0B8A6E0238F00B036E8150B2
:101306000F0B03108A6E8150FB0B8A6E8150040905
:101316008A6E530EE82EFED700F08150FB0B8A6EC4
:10132600070E016E7D0EE82EFED7012EFCD700F0CB
:101336001200F80EF66E110EF76E000EF86E00EE45
:1013460080F010EE6CF00900F5CFEEFFE550E150AD
:10135600FAE1EC0EF66E140EF76E000EF86E00EE65
:1013660057F010EE0DF00900F5CFEEFFE550E15015
:10137600FAE100EEECF00E0EEE6AE806FDE100EE94
:1013860035F0220EEE6AE806FDE164906492000EE6
:10139600F86E0001C4EF08F0410E1F6EEE0EE82E47
:1013A600FED71F2EFCD700D0000E936E200E3AEC0F
:1013B6000AF0200E3AEC0AF0300E3AEC0AF0000E73
:1013C6001B6E2C0E8EEC07F0000E1B6E060E8EECBE
:1013D60007F0000E1B6E0F0E8EEC07F0000E1B6E54
:1013E600010E8EEC07F0070E1F6E7D0EE82EFED75F
:1013F6001F2EFCD700F012001C6E000EF2BE010E6E
:101406001D6EA6B209EF0AF00BEF0AF004EF0AF020
:101416001BC0A9FF1CC0A8FFA69EA69CA684F29E80
:10142600550EA76EAA0EA76EA6821DB002D0F29E1A
:1014360001D0F28E4E2A12003D503E10D8B426EF4F
:101446000AF028EF0AF039EF0AF00BC001F00CC0E1
:1014560002F002D839EF0AF00500FA6E3D50FD6E33
:101466003E50FE6EF850FF6EFA50120012001C6ECF
:101476008150F70B8A6E81500F0B1C108A6E8150BB
:1014860004098A6E530EE82EFED700F08150FB0B3E
:101496008A6E040E1B6E3E0EE82EFED71B2EFCD760
:1014A6001200000E1E6E1EC01BF0FF0EFFEC09F0B0
:1014B6001E2A1E28D8A462EF0AF064EF0AF056EF3F
:1014C6000AF0000E4E6E12001B6EA6B26DEF0AF009
:1014D6006FEF0AF068EF0AF01BC0A9FFA69EA69C54
:1014E600A680A850120001000000302E30302E30A9
:0314F6005A05256F
:1014FA001BC03DF01CC03EF01200D08EF28EF28C62
:10150A001200016E01C04BF012008150010B120053
:04151A004B50120020
:020000040020DA
:08000000FFFFFFFFFFFFFFFF00
:020000040030CA
:0E000000FF021F1EFF0181FF0FC00FE00F4027
:00000001FF
