:020000040000FA
:0400000007EF00F016
:10000800268258ED00F0A3EF00F0D59E23C0D9FF5B
:1000180024C0DAFFDF50256E253A25462546D550FF
:100028002518BF0B2518D56E20EE01F02350D926D0
:100038002450DA22DF50256E253A2546D55025185A
:10004800DF0B2518D56E20EE03F02350D926245057
:10005800DA22DF50256E254625462546D550251837
:10006800F70B2518D56ED530E832E832010B0009B8
:10007800D8A441EF00F043EF00F050EF00F020EE7D
:1000880004F02350D9262450DA22DF50256ED550AB
:100098002518F80B2518D56EF28AF184FB0ED76E59
:1000A8001E0ED66ED58E12000600FACF1FF0FBCFBB
:1000B80020F0D9CF21F0DACF22F0F2A466EF00F0D9
:1000C80068EF00F073EF00F0170E1D6E000E1E6E45
:1000D800C0EC00F0FB0ED76E1E0ED66EF2949EAAF0
:1000E80078EF00F07AEF00F07BEF00F09E9A22C0E4
:1000F800DAFF21C0D9FF20C0FBFF1FC0FAFF2692FC
:1001080011009350FE0B936E9350FD0B936E81502C
:10011800FE0B8A6E815002098A6EF0EC00F00B0E1D
:10012800236E000E246E09EC00F0B60E236E010E4D
:10013800246EEBEC00F09FEF00F007EF00F0CA0E22
:10014800F66E010EF76E000EF86E00EE10F010EE6F
:100158000BF00900F5CFEEFFE550E150FAE100EEB3
:1001680001F00F0EEE6AE806FDE126902692000ED9
:10017800F86E000185EF00F009500A10D8B4C7EFF7
:1001880000F0C9EF00F0DAEF00F01DC01BF01EC050
:100198001CF002D8DAEF00F00500FA6E0950FD6E87
:1001A8000A50FE6EF850FF6EFA50120012001BC083
:1001B800D9FF1CC0DAFFDE2A000EDE22DE22DE2294
:0D01C8001200000000802500000100000072
:1001D60023C009F024C00AF01200D08EF28EF28CF1
:0201E600120005
:020000040020DA
:08000000FFFFFFFFFFFFFFFF00
:020000040030CA
:0E000000FF021F1EFF0181FF0FC00FE00F4027
:00000001FF
