:020000040000FA
:0400000007EF00F016
:0A0008006782D8ED05F005EF09F05E
:10060000002A2A2A204C454954555241204154552C
:10061000414C202A2A2A0A002A2A2A554C54494D9C
:100620004F204C4F472A2A2A0A002A2A2A204649C4
:100630004D204C4F47202A2A2A0A0054454D204578
:100640004E4552474941004D454D2E2046554C4C94
:100650000053454D204C4F470048554D443A2D20FE
:100660000054454D503A2D20004A41204C4F470040
:090670004552524F002020000009
:10067A00D40E0001DB6F000EDC6F9BEC04F0050E5C
:10068A000001E96F910EE86FCF0EE82EFED7E82F32
:10069A00FCD7E92FFAD700D0CEEC09F080EC0AF0AB
:1006AA009350FE0B936E9350FD0B936E8150FE0B8D
:1006BA008A6E8150FD0B8A6E95500109956E000E67
:1006CA000001EA6F990E0001E96F310EE86FA20E80
:1006DA00E82EFED7E82FFCD7E92FFAD700F093ECE3
:1006EA000AF02BEC0AF030EC07F00001ED6F30EC69
:1006FA0007F00001EE6F30EC07F00001EF6F30EC0D
:10070A0007F00001F06F30EC07F00001E86FE851E4
:10071A00EB6FEC6BEE51EDC0E8F0E96BE827000EE9
:10072A00E923EF51E827000EE923F051E827000EEC
:10073A00E923EB51E81909E1EC51E919D8B4A8EF1A
:10074A0003F0AAEF03F0C1EF03F0000E196E010ED9
:10075A0012EC08F00C0E0001E86FAF0EE82EFED77F
:10076A00E82FFCD7700E1C6E060E1D6E050E1E6E4F
:10077A00000E1F6ED4EC07F0000E196E010E12EC7B
:10078A0008F00C0E0001E86FAF0EE82EFED7E82F36
:10079A00FCD7590E1C6E060E1D6E080E1E6E000E3C
:1007AA001F6ED4EC07F0EDC019F01A6A000E1C6E29
:1007BA000A0E1B6E76EC06F01950300F6AEC09F03F
:1007CA00EDC019F01A6A000E1C6E0A0E1B6ED8ECE8
:1007DA0006F01950300F6AEC09F02E0E6AEC09F097
:1007EA00EEC019F01A6A000E1C6E0A0E1B6E76EC29
:1007FA0006F01950300F6AEC09F0EEC019F01A6AC7
:10080A00000E1C6E0A0E1B6ED8EC06F01950300F43
:10081A006AEC09F0200E6AEC09F0EBC019F0ECC0A2
:10082A001AF0000E1C6E0A0E1B6ECBEC08F0195063
:10083A00300F6AEC09F0EBC019F0ECC01AF0000EA8
:10084A001C6E0A0E1B6E38EC09F01950300F6AEC58
:10085A0009F0000E196EC00E12EC08F0610E1C6E43
:10086A00060E1D6E080E1E6E000E1F6ED4EC07F0EB
:10087A00EFC019F01A6A000E1C6E0A0E1B6E76EC97
:10088A0006F01950300F6AEC09F0EFC019F01A6A35
:10089A00000E1C6E0A0E1B6ED8EC06F01950300FB3
:1008AA006AEC09F02E0E6AEC09F0F0C019F01A6A27
:1008BA00000E1C6E0A0E1B6E76EC06F01950300FF5
:1008CA006AEC09F0F0C019F01A6A000E1C6E0A0EE2
:1008DA001B6ED8EC06F01950300F6AEC09F02E0E98
:1008EA006AEC09F00001EA51300F6AEC09F03D0E9A
:1008FA000001E96FE10EE86F3F0EE82EFED7E82F00
:10090A00FCD7E92FFAD700D0090E0001EA6190EF6F
:10091A0004F092EF04F095EF04F0EA2B74EF03F081
:10092A00000EEA6F74EF03F007EF00F0000E196E85
:10093A001B0E1A6EB70E1B6E000E1C6E000120EE07
:10094A0003F0DB51D926DC51DA22DECFDDF0DECF2F
:10095A00DEF0DECFDFF0DECFE0F0060ED890DD3736
:10096A00DE37DF37E037E82EB3EF04F0DDC01DF0E5
:10097A00DEC01EF0DFC01FF0E0C020F082EC07F0FE
:10098A0019500001E36F000E196E1B0E1A6EB70E96
:10099A001B6E000E1C6E20EE03F0DB51D926DC51D3
:1009AA00DA22DECFDDF0DECFDEF0DECFDFF0DECF23
:1009BA00E0F0040ED890DD37DE37DF37E037E82E77
:1009CA00DFEF04F0DDC01DF0DEC01EF0DFC01FF057
:1009DA00E0C020F082EC07F019500001E46F000E2D
:1009EA00196E1B0E1A6EB70E1B6E000E1C6E20EED1
:1009FA0003F0DB51D926DC51DA22DECFDDF0DECF7F
:100A0A00DEF0DECFDFF0DECFE0F0020ED890DD3789
:100A1A00DE37DF37E037E82E0BEF05F0DDC01DF0DB
:100A2A00DEC01EF0DFC01FF0E0C020F082EC07F04D
:100A3A0019500001E56F20EE03F0DB51D926DC5195
:100A4A00DA22DF50DD6F000E196E1B0E1A6EB70E1A
:100A5A001B6E000E1C6EE351400DF3CFDEF0F4CF97
:100A6A00DFF0DEC01DF0DFC01EF0000E1EBEFF0E5E
:100A7A001F6E206E82EC07F00001DD51195CE16FF8
:100A8A0020EE03F0DB51D926DC51DA22DF50DD6F8C
:100A9A00000E196E1B0E1A6EB70E1B6E000E1C6E20
:100AAA00E451100DF3CFDEF0F4CFDFF0DEC01DF01D
:100ABA00DFC01EF0000E1EBEFF0E1F6E206E82ECFF
:100ACA0007F00001DD51195CE66F20EE03F0DB51FF
:100ADA00D926DC51DA22DF50DD6F000E196E1B0EAB
:100AEA001A6EB70E1B6E000E1C6EE551040DF3CF85
:100AFA00DEF0F4CFDFF0DEC01DF0DFC01EF0000E26
:100B0A001EBEFF0E1F6E206E82EC07F00001DD5143
:100B1A00195CE26FE1C0E7F0B896AC94E305AF6EFA
:100B2A00E751E65DD8B09CEF05F09EEF05F0A4EF23
:100B3A0005F0E6C0E7F0B896AC84E405AF6EE7517D
:100B4A00E25DD8B0ABEF05F0ADEF05F0B1EF05F01F
:100B5A00B886AC84E505AF6E20EE02F0DB51D926EB
:100B6A00DC51DA22DF50DD6FDD3BAC50DD19EF0BD3
:100B7A00DD19AC6EAB8E20EE01F0DB51D926DC51CB
:100B8A00DA22DE04D8A4CCEF05F0CEEF05F0D2EFDE
:100B9A0005F0AC8CAB8CD4EF05F0AC9CAB9CAC8A6A
:100BAA00AB889D8A12000600E9CF11F0EACF12F055
:100BBA00D9CF13F0DACF14F0F6CF15F0F7CF16F03D
:100BCA00F8CF17F0F5CF18F0F2A4EEEF05F0F0EF3A
:100BDA0005F0FBEF05F05A0E016E000E026EB8EC3E
:100BEA000AF0FB0ED76E1E0ED66EF2949EAA00EF86
:100BFA0006F002EF06F064EF06F0AECF3DF0050E08
:100C0A003C600AEF06F00CEF06F00FEF06F03C2A04
:100C1A0063EF06F03E0E3D18D8B416EF06F018EF53
:100C2A0006F023EF06F0420E3E24D96EDA6A000E71
:100C3A00DA223DC0DFFF3E2A63EF06F0420E3E2471
:100C4A00D96EDA6A000EDA223DC0DFFF000E016EAD
:100C5A00010E50EC08F0140E106E7A0EE82EFED734
:100C6A00102EFCD7420E046E000E056E040E066EA0
:100C7A00000E076E8EEC08F0430E4318D8A448EF16
:100C8A0006F04AEF06F052EF06F0010EB4EC0AF055
:100C9A008150010A8A6E61EF06F0440E4318D8A407
:100CAA0059EF06F05BEF06F061EF06F0000EB4ECC8
:100CBA000AF08150020A8A6E000E3E6E9E9A18C091
:100CCA00F5FF17C0F8FF16C0F7FF15C0F6FF14C0EE
:100CDA00DAFF13C0D9FF12C0EAFF11C0E9FF679219
:100CEA001100000E1E6E1CBE7FEF06F07DEF06F0AF
:100CFA0085EF06F01B6C1C1ED8B01C2A010E1E6E56
:100D0A001ABE8CEF06F08AEF06F092EF06F0196C25
:100D1A001A1ED8B01A2A010E1E1A000E206E000ED4
:100D2A001F6E1B501C10D8B49DEF06F09FEF06F003
:100D3A00C7EF06F0010E1D6EA7EF06F0D8901B361E
:100D4A001C361D2A1CAEACEF06F0AEEF06F0A3EF80
:100D5A0006F0D8901F3620361B50195C1C501A58C2
:100D6A00D8A0BAEF06F0BCEF06F0C1EF06F01B50B0
:100D7A00195E1C501A5A1F80D8901C321B321D2E25
:100D8A00AEEF06F01E50D8B4CDEF06F0CFEF06F066
:100D9A00D3EF06F01F6C201ED8B0202A1FC019F00E
:100DAA0020C01AF01200000E1E6E1ABEE1EF06F005
:100DBA00DFEF06F0E7EF06F0196C1A1ED8B01A2A10
:100DCA00010E1E6E1CBEEEEF06F0ECEF06F0F2EF1F
:100DDA0006F01B6C1C1ED8B01C2A1B501C10D8B461
:100DEA00F9EF06F0FBEF06F01FEF07F0010E1D6E9C
:100DFA0003EF07F0D8901B361C361D2A1CAE08EFED
:100E0A0007F00AEF07F0FFEF06F01B50195C1C50C1
:100E1A001A58D8A013EF07F015EF07F019EF07F0EB
:100E2A001B50195E1C501A5AD8901C321B321D2EA8
:100E3A000AEF07F01E50D8B425EF07F027EF07F0A6
:100E4A002BEF07F0196C1A1ED8B01A2A19C019F01C
:100E5A001AC01AF01200000E1C6E83CF19F0D89037
:100E6A00193219A03BEF07F03DEF07F032EF07F018
:100E7A00280EE82EFED783CF19F0D890193219B070
:100E8A0049EF07F04BEF07F05DEF07F01C5007083A
:100E9A00196E010E1A6E192A55EF07F0D8901A36F4
:100EAA00192E53EF07F01A50FF0A1B166CEF07F0C2
:100EBA001C500708196E010E1A6E192A67EF07F0FF
:100ECA00D8901A36192E65EF07F01A501B1283CFE5
:100EDA0019F0D890193219B075EF07F077EF07F0CB
:100EEA006CEF07F01C2A070E1C647EEF07F080EFF8
:100EFA0007F032EF07F01B501200000E216E000EB1
:100F0A00226E000E236E000E246E1D501E101F103E
:100F1A002010D8B493EF07F095EF07F0CBEF07F066
:100F2A00010E256E9FEF07F0D8901D361E361F362C
:100F3A002036252A20AEA4EF07F0A6EF07F099EF96
:100F4A0007F0D89021362236233624361D50195CF4
:100F5A001E501A581F501B5820501C58D8A0B8EFC2
:100F6A0007F0BAEF07F0C3EF07F01D50195E1E50E5
:100F7A001A5A1F501B5A20501C5A2180D8902032CE
:100F8A001F321E321D32252EA6EF07F021C019F09E
:100F9A0022C01AF023C01BF024C01CF01200000E5D
:100FAA00206E000E206EF3EF07F020501C24DB6F3A
:100FBA00000E1D20DC6FDBC0F6FFDCC0F7FFF86A0D
:100FCA00050EF76403D00800F55005D0F6CFE9FF07
:100FDA00F7CFEAFFEF506AEC09F0202AFF0E000172
:100FEA00DB6FFF0EDC6F1E50DD6FDE6BDB51DD2722
:100FFA00DC51DE232050DF6FE06BDD51DF5DE05115
:10100A00800AE16FDE51800AE159D8A00FEF08F09B
:10101A0011EF08F0DAEF07F012001B6E1904D8A4DA
:10102A0019EF08F01BEF08F020EF08F081500809CB
:10103A008A6E23EF08F08150F70B8A6E1B50F00B73
:10104A001C6E81500F0B1C108A6E8150FB0B8A6E2E
:10105A00815004098A6E640EE82EFED78150FB0B7C
:10106A008A6E1B38F00B1C6E1CC08AFF8150FB0B6A
:10107A008A6E815004098A6E640EE82EFED781506A
:10108A00FB0B8A6E040E1A6EE40EE82EFED71A2E99
:10109A00FCD700D01200036E0104D8A457EF08F061
:1010AA0059EF08F05EEF08F0815008098A6E61EF87
:1010BA0008F08150F70B8A6E0350F00B046E8150D2
:1010CA000F0B04108A6E8150FB0B8A6E8150040943
:1010DA008A6E640EE82EFED78150FB0B8A6E0338A7
:1010EA00F00B046E04C08AFF8150FB0B8A6E81509C
:1010FA0004098A6E640EE82EFED78150FB0B8A6EB5
:10110A00040E026EE40EE82EFED7022EFCD700D0A3
:10111A001200000E0F6E000E0F6EADEF08F00F50AA
:10112A000424086E000E0520096E08C0F6FF09C0E7
:10113A00F7FFF86A050EF76403D00800F55005D0EA
:10114A00F6CFE9FFF7CFEAFFEF509CEC09F00F2A40
:10115A00FF0E086EFF0E096E06500A6E0B6A0850E3
:10116A000A2609500B220F500C6E0D6A0A500C5CAD
:10117A000D50800A0E6E0B50800A0E58D8A0C8EF88
:10118A0008F0CAEF08F094EF08F01200000E1F6E84
:10119A00000E1E6E1B501C10D8B4D6EF08F0D8EF04
:1011AA0008F000EF09F0010E1D6EE0EF08F0D8908C
:1011BA001B361C361D2A1CAEE5EF08F0E7EF08F0D7
:1011CA00DCEF08F0D8901E361F361B50195C1C50F5
:1011DA001A58D8A0F3EF08F0F5EF08F0FAEF08F084
:1011EA001B50195E1C501A5A1E80D8901C321B3292
:1011FA001D2EE7EF08F01EC019F01FC01AF01200EA
:10120A00FA0EF66E130EF76E000EF86E00EE80F010
:10121A0010EE5BF00900F5CFEEFFE550E150FAE180
:10122A004A0EF66E150EF76E000EF86E00EE49F0D5
:10123A0010EE1EF00900F5CFEEFFE550E150FAE19D
:10124A0000EEF1F00E0EEE6AE806FDE100EE26F081
:10125A00230EEE6AE806FDE167906792000EF86ECB
:10126A0000013DEF03F01B501C10D8B43FEF09F00A
:10127A0041EF09F065EF09F0010E1D6E49EF09F023
:10128A00D8901B361C361D2A1CAE4EEF09F050EFC3
:10129A0009F045EF09F01B50195C1C501A58D8A0E8
:1012AA0059EF09F05BEF09F05FEF09F01B50195E87
:1012BA001C501A5AD8901C321B321D2E50EF09F0BE
:1012CA0019C019F01AC01AF012001A6E81500809D2
:1012DA008A6E1A50F00B1B6E81500F0B1B108A6E10
:1012EA008150FB0B8A6E815004098A6E640EE82EC7
:1012FA00FED78150FB0B8A6E1A38F00B1B6E815099
:10130A000F0B1B108A6E8150FB0B8A6E81500409E9
:10131A008A6E640EE82EFED78150FB0B8A6E080E89
:10132A00196ECA0EE82EFED7192EFCD71200026ECD
:10133A00815008098A6E0250F00B036E81500F0B20
:10134A0003108A6E8150FB0B8A6E815004098A6EE3
:10135A00640EE82EFED78150FB0B8A6E0238F00B22
:10136A00036E81500F0B03108A6E8150FB0B8A6E3D
:10137A00815004098A6E640EE82EFED78150FB0B59
:10138A008A6E080E016ECA0EE82EFED7012EFCD711
:10139A0012004E0E1D6EEB0EE82EFED71D2EFCD748
:1013AA0000F0000E936E200E4DEC0AF0200E4DEC6C
:1013BA000AF0300E4DEC0AF0000E196E2C0E12ECEB
:1013CA0008F0000E196E060E12EC08F0000E196EE7
:1013DA000F0E12EC08F0000E196E010E12EC08F056
:1013EA00080E1D6ECA0EE82EFED71D2EFCD712005F
:1013FA005553455220434F4E45435441444F00559F
:10140A0053455220444553434F4E4E0048554D3A9A
:10141A00200000000000000041542B50494E58594A
:10142A005A570054454D503A2000000000004154DC
:10143A002B424155440041542B4E414D450000007A
:0B144A000001010100000080250000EF
:1014560083CF19F0D890193219B034EF0AF036EF6D
:101466000AF02BEF0AF083CF19F0D890193219A0A1
:101476003FEF0AF041EF0AF036EF0AF083CF19F09A
:10148600D890193219B04AEF0AF04CEF0AF041EF42
:101496000AF012001A6E8150F70B8A6E81500F0BFC
:1014A6001A108A6E815004098A6E640EE82EFED7E1
:1014B6008150FB0B8A6E040E196EE40EE82EFED7E1
:1014C600192EFCD700D012001A6EF250A6B26EEF9B
:1014D6000AF070EF0AF069EF0AF019C0A9FF1AC006
:1014E600A8FFA69EA69CA684F29E550EA76EAA0EDF
:1014F600A76EA682F28E402A1200000E1B6E1BC03B
:1015060019F0FF0E67EC0AF01B2A1B28D8A48EEFF1
:101516000AF090EF0AF082EF0AF0000E406E120019
:101526009550FD0B956E8350FD0B8C6E4E0E196E0D
:10153600EB0EE82EFED7192EFCD700F095500209C7
:10154600956E120048554D203A200054454D503AAC
:10155600202300F84301000000302E30302E305A90
:0C1566000525016E01C03BF012001200D0
:020000040020DA
:08000000FFFFFFFFFFFFFFFF00
:020000040030CA
:0E000000FF021F1EFF8181FF0FC00FE00F40A7
:00000001FF
