:020000040000FA
:0400000007EF00F016
:0A0008002E82E3ED03F005EF04F093
:10060000005445535445204142430000056E030405
:10061000D8A40DEF03F00FEF03F014EF03F08150B7
:1006200008098A6E17EF03F08150F70B8A6E0550A8
:10063000F00B066E81500F0B06108A6E8150FB0B7B
:100640008A6E815004098A6E530EE82EFED700F0A0
:100650008150FB0B8A6E0538F00B066E06C08AFFD0
:100660008150FB0B8A6E815004098A6E530EE82E6E
:10067000FED700F08150FB0B8A6E040E046E3E0E16
:10068000E82EFED7042EFCD71200070E126E580E6D
:10069000116E5A0EE82EFED7112EFCD7122EFAD765
:1006A000000E936E200E22EC04F0200E22EC04F0DB
:1006B000300E22EC04F0000E036E060E06EC03F082
:1006C000000E036E0F0E06EC03F0000E036E010E1B
:1006D00006EC03F0070E116E7D0EE82EFED7112EEC
:1006E000FCD700F0010E066E060E076E0A0E086EAD
:1006F000B0EC03F01200046E815008098A6E0450B9
:10070000F00B056E81500F0B05108A6E8150FB0BAC
:100710008A6E815004098A6E530EE82EFED700F0CF
:100720008150FB0B8A6E0438F00B056E81500F0B65
:1007300005108A6E8150FB0B8A6E815004098A6E07
:10074000530EE82EFED700F08150FB0B8A6E070E89
:10075000036E7D0EE82EFED7032EFCD700F01200AC
:10076000000E106E000E106EC5EF03F01050062440
:10077000096E000E07200A6E09C0F6FF0AC0F7FFD7
:100780000800F5507BEC03F0102AFF0E096EFF0EF7
:100790000A6E08500B6E0C6A09500B260A500C2288
:1007A00010500D6E0E6A0B500D5C0E50800A0F6ECD
:1007B0000C50800A0F58D8A0E0EF03F0E2EF03F0EE
:1007C000B6EF03F012000600F2A4E9EF03F0EBEF3E
:1007D00003F0F6EF03F02A0E016E000E026E53ECEA
:1007E00004F0FB0ED76E1E0ED66EF2949EAAFBEF9F
:1007F00003F0FDEF03F003EF04F0AECF22F0225040
:100800003CEC04F09E9A2E9211009A0EF66E080EA1
:10081000F76E000EF86E00EE23F010EE0BF00900FC
:10082000F5CFEEFFE550E150FAE100EE13F0100EC7
:10083000EE6AE806FDE12E902E92000EF86E0001A1
:1008400047EF04F0046E8150F70B8A6E81500F0B56
:1008500004108A6E815004098A6E530EE82EFED76A
:1008600000F08150FB0B8A6E040E036E3E0EE82EE4
:10087000FED7032EFCD71200016E01C0ADFFACA263
:1008800044EF04F046EF04F03FEF04F0120045ECB3
:1008900003F049EF04F007EF00F0000000802500AE
:0508A000000100000052
:0208A60012003E
:020000040020DA
:08000000FFFFFFFFFFFFFFFF00
:020000040030CA
:0E000000FF021F1EFF0181FF0FC00FE00F4027
:00000001FF
