:020000040000FA
:0400000007EF00F016
:0A000800658261ED04F0F2EF06F0EE
:1006000000414341424F55204553534120504F48EC
:10061000410053544152545F424C5545544F4F543E
:10062000480044485431312054494D454F555400F9
:100630004448543131204F4B0031003200330034F4
:1006400000350036003700380000800E166E960E1A
:10065000176E980E186E000E196E20EE03F02350E0
:10066000D9262450DA22DECF25F0DECF26F0DECFE9
:1006700027F0DECF28F0060ED8902536263627360E
:100680002836E82E3CEF03F025C01AF026C01BF0F8
:1006900027C01CF028C01DF0FDEC04F0165000012E
:1006A000826F800E166E960E176E980E186E000EE4
:1006B000196E20EE03F02350D9262450DA22DECF23
:1006C00025F0DECF26F0DECF27F0DECF28F0040EB7
:1006D000D8902536263627362836E82E68EF03F0E0
:1006E00025C01AF026C01BF027C01CF028C01DF042
:1006F000FDEC04F016500001836F800E166E960E0E
:10070000176E980E186E000E196E20EE03F023502F
:10071000D9262450DA22DECF25F0DECF26F0DECF38
:1007200027F0DECF28F0020ED89025362636273661
:100730002836E82E94EF03F025C01AF026C01BF0EF
:1007400027C01CF028C01DF0FDEC04F0165000017D
:10075000846F20EE03F02350D9262450DA22DF5094
:10076000256E800E166E960E176E980E186E000E81
:10077000196E8251400DF3CF26F0F4CF27F026C03A
:100780001AF027C01BF0000E1BBEFF0E1C6E1D6E64
:10079000FDEC04F02550165C0001806F20EE03F0A4
:1007A0002350D9262450DA22DF50256E800E166E93
:1007B000960E176E980E186E000E196E8351100D5E
:1007C000F3CF26F0F4CF27F026C01AF027C01BF095
:1007D000000E1BBEFF0E1C6E1D6EFDEC04F02550BE
:1007E000165C0001856F20EE03F02350D9262450BB
:1007F000DA22DF50256E800E166E960E176E980E5A
:10080000186E000E196E8451040DF3CF26F0F4CF4C
:1008100027F026C01AF027C01BF0000E1BBEFF0EEB
:100820001C6E1D6EFDEC04F02550165C0001816FFE
:1008300080C086F0B896AC948205AF6E8651855D17
:10084000D8B025EF04F027EF04F02DEF04F085C0B9
:1008500086F0B896AC848305AF6E8651815DD8B0C2
:1008600034EF04F036EF04F03AEF04F0B886AC84CD
:100870008405AF6E20EE02F02350D9262450DA22F0
:10088000DF50256E253AAC502518EF0B2518AC6EBD
:10089000AB8E20EE01F02350D9262450DA22DE045C
:1008A000D8A455EF04F057EF04F05BEF04F0AC8CE4
:1008B000AB8C5DEF04F0AC9CAB9CAC8AAB889D8AA2
:1008C00012000600FACF0CF0FBCF0DF0E9CF0EF0CE
:1008D000EACF0FF0D9CF10F0DACF11F0F6CF12F047
:1008E000F7CF13F0F8CF14F0F5CF15F0F2A47BEFAB
:1008F00004F07DEF04F088EF04F04B0E036E000E61
:10090000046E0FEC07F0FB0ED76E1E0ED66EF2943F
:100910009EAA8DEF04F08FEF04F0E7EF04F0AECF66
:1009200058F05E0E5724D96EDA6A000EDA2258C0EB
:10093000DFFF3E0E5818D8B4A0EF04F0A2EF04F089
:10094000ADEF04F05E0E5724D96EDA6A000EDA229B
:1009500058C0DFFF572AE6EF04F0000E016E010ECB
:1009600025EC06F0110E0B6E3A0EE82EFED70B2E7C
:10097000FCD700D05E0E046E000E056E030E066EF0
:10098000000E076EC9EC06F0430E5F18D8A4CBEF3B
:1009900004F0CDEF04F0D5EF04F0815001098A6E28
:1009A000010E6AEC07F0E4EF04F0440E5F18D8A4DF
:1009B000DCEF04F0DEEF04F0E4EF04F08150FE0B16
:1009C0008A6E000E6AEC07F0000E576E9E9A15C0F4
:1009D000F5FF14C0F8FF13C0F7FF12C0F6FF11C0F7
:1009E000DAFF10C0D9FF0FC0EAFF0EC0E9FF0DC04B
:1009F000FBFF0CC0FAFF65921100000E1E6E000E88
:100A00001F6E000E206E000E216E1A501B101C105F
:100A10001D10D8B40EEF05F010EF05F046EF05F00D
:100A2000010E226E1AEF05F0D8901A361B361C36CE
:100A30001D36222A1DAE1FEF05F021EF05F014EF41
:100A400005F0D8901E361F36203621361A50165C17
:100A50001B5017581C5018581D501958D8A033EF68
:100A600005F035EF05F03EEF05F01A50165E1B500D
:100A7000175A1C50185A1D50195A1E80D8901D32F2
:100A80001C321B321A32222E21EF05F01EC016F046
:100A90001FC017F020C018F021C019F01200D59E19
:100AA00016C0D9FF17C0DAFFDF50186E183A184683
:100AB0001846D5501818BF0B1818D56E20EE01F047
:100AC0001650D9261750DA22DF50186E183A1846F9
:100AD000D5501818DF0B1818D56E20EE03F01650FD
:100AE000D9261750DA22DF50186E184618461846D5
:100AF000D5501818F70B1818D56ED530E832E832F3
:100B0000010B0009D8A487EF05F089EF05F096EFF7
:100B100005F020EE04F01650D9261750DA22DF50E7
:100B2000186ED5501818F80B1818D56EF28AF18483
:100B3000FB0ED76E1E0ED66ED58E120066EC07F039
:100B4000590E166E000E176E4FEC05F0AE0E166EB7
:100B50000E0E176E61EC07F0440E236E000E246E2D
:100B600025EC03F09350FE0B936E9350FD0B936EA8
:100B70008150FE0B8A6E8150FD0B8A6E99EC06F057
:100B80006EEC07F00009D8A4C8EF05F0CAEF05F035
:100B9000D2EF05F0815001098A6E8150FD0B8A6EFB
:100BA000C0EF05F06EEC07F0E806D8A4DAEF05F028
:100BB000DCEF05F0C0EF05F08150FE0B8A6E81502E
:100BC00002098A6EC0EF05F007EF00F0186E1604F8
:100BD000D8A4EDEF05F0EFEF05F0F4EF05F081504C
:100BE00008098A6EF7EF05F08150F70B8A6E1850EE
:100BF000F00B196E81500F0B19108A6E8150FB0B90
:100C00008A6E815004098A6E530EE82EFED700F0DA
:100C10008150FB0B8A6E1838F00B196E19C08AFFD1
:100C20008150FB0B8A6E815004098A6E530EE82EA8
:100C3000FED700F08150FB0B8A6E040E176E3E0E3D
:100C4000E82EFED7172EFCD71200036E0104D8A49D
:100C50002CEF06F02EEF06F033EF06F08150080976
:100C60008A6E36EF06F08150F70B8A6E0350F00B58
:100C7000046E81500F0B04108A6E8150FB0B8A6E3C
:100C8000815004098A6E530EE82EFED700F0815081
:100C9000FB0B8A6E0338F00B046E04C08AFF815090
:100CA000FB0B8A6E815004098A6E530EE82EFED724
:100CB00000F08150FB0B8A6E040E026E3E0EE82E91
:100CC000FED7022EFCD71200026E815008098A6EF0
:100CD0000250F00B036E81500F0B03108A6E81508F
:100CE000FB0B8A6E815004098A6E530EE82EFED7E4
:100CF00000F08150FB0B8A6E0238F00B036E8150BE
:100D00000F0B03108A6E8150FB0B8A6E8150040911
:100D10008A6E530EE82EFED700F08150FB0B8A6ED0
:100D2000070E016E7D0EE82EFED7012EFCD700F0D7
:100D30001200410E1A6EEE0EE82EFED71A2EFCD7C8
:100D400000D0000E936E200E2AEC07F0200E2AEC45
:100D500007F0300E2AEC07F0000E166E2C0EE6ECB3
:100D600005F0000E166E060EE6EC05F0000E166E8F
:100D70000F0EE6EC05F0000E166E010EE6EC05F027
:100D8000070E1A6E7D0EE82EFED71A2EFCD700F045
:100D90001200000E0A6E000E0A6EE8EF06F00A500E
:100DA0000424086E000E0520096E08C0F6FF09C075
:100DB000F7FFF86A050EF76403D00800F55005D078
:100DC000F6CFE9FFF7CFEAFFEF5064EC06F00A2A0E
:100DD00006500A5CD8A0EFEF06F0F1EF06F0CFEF77
:100DE00006F01200880EF66E0E0EF76E000EF86E0C
:100DF00000EE29F010EE26F00900F5CFEEFFE550E9
:100E0000E150FAE100EE4FF0160EEE6AE806FDE161
:100E100065906592000EF86E00019EEF05F053504C
:100E20005410D8B416EF07F018EF07F029EF07F0C9
:100E300003C001F004C002F002D829EF07F005005A
:100E4000FA6E5350FD6E5450FE6EF850FF6EFA501D
:100E500012001200176E8150F70B8A6E81500F0B33
:100E600017108A6E815004098A6E530EE82EFED741
:100E700000F08150FB0B8A6E040E166E3E0EE82EBB
:100E8000FED7162EFCD7120041542B50494E58590C
:100E90005A570041542B4E414D450041542B42417D
:100EA000554400000000802500000100000001C042
:100EB000D9FF02C0DAFFDE2A000EDE22DE22DE22A9
:100EC000120016C053F017C054F01200D08EF28EEC
:100ED000F28C1200016E01C056F012005650120042
:020000040020DA
:08000000FFFFFFFFFFFFFFFF00
:020000040030CA
:0E000000FF021F1EFF8181FF0FC00FE00F40A7
:00000001FF
