:020000040000FA
:0400000007EF00F016
:1000080001827BED00F056EF00F0D59E85C0D9FF48
:1000180086C0DAFFDF500001876F873B8747874735
:10002800D5508719BF0B8719D56E000120EE01F056
:100038008551D9268651DA22DF500001876F873B28
:100048008747D5508719DF0B8719D56E000120EE39
:1000580003F08551D9268651DA22DF500001876FD7
:10006800874787478747D5508719F70B8719D56E74
:10007800D530E832E832010B0009D8A40FD00001CE
:1000880020EE04F08551D9268651DA22DF5000018E
:10009800876FD5508719F80B8719D56EF28AF184C6
:1000A800D58E1200180EF66E010EF76E000EF86E61
:1000B80000EE80F010EE05F00900F5CFEEFFE550F8
:1000C800E150FAE10190019200016BEF00F09350CA
:1000D800FE0B936E9350FD0B936E88EC00F0800E30
:1000E8000001856F000E866F09EC00F0FFD706004F
:1000F800F2A408D08150010A8A6E000ED76E000E55
:10010800D66EF29401921100D08EF28EF28C12000B
:050118000000000003DF
:020000040020DA
:08000000FFFFFFFFFFFFFFFF00
:020000040030CA
:0E000000FF021F1EFF8181FF0FC00FE00F40A7
:00000001FF
