:020000040000FA
:0400000007EF00F016
:10000800128218ED01F051EF01F0000E936E000E10
:10001800956E8150FD0B8A6E8350FE0B8C6E83505B
:1000280002098C6E8350FB0B8C6E8350F70B8C6E21
:10003800815001098A6E040E106E3E0EE82EFED71E
:10004800102EFCD78150FE0B8A6E200EEAEC00F0D1
:100058000E0EEAEC00F0815002098A6E8350FE0B06
:100068008C6E8350FD0B8C6E835004098C6E83500C
:10007800F70B8C6E815001098A6E210E106E760E78
:10008800E82EFED7102EFCD700D08150FE0B8A6ECA
:10009800815002098A6E8350FE0B8C6E8350FD0BD3
:1000A8008C6E8350FB0B8C6E835008098C6E8150CC
:1000B80001098A6E210E106E760EE82EFED7102EDC
:1000C800FCD700D08150FE0B8A6E4E0EBCEC00F0BF
:1000D8001200D59E0DC0D9FF0EC0DAFFDF500F6E9B
:1000E8000F3A0F460F46D5500F18BF0B0F18D56E95
:1000F80020EE01F00D50D9260E50DA22DF500F6E97
:100108000F3A0F46D5500F18DF0B0F18D56E20EE9B
:1001180003F00D50D9260E50DA22DF500F6E0F462D
:100128000F460F46D5500F18F70B0F18D56ED53060
:10013800E832E832010B0009D8A4A5EF00F0A7EFD8
:1001480000F0B4EF00F020EE04F00D50D9260E5068
:10015800DA22DF500F6ED5500F18F80B0F18D56E36
:10016800F28AF184D90ED76ED90ED66ED58E1200CA
:100178000E6E815002098A6E815001098A6E0E380E
:100188000F0B0F6E0FC083FF815001098A6E210E7D
:100198000D6E760EE82EFED70D2EFCD700D08150BE
:1001A800FE0B8A6E0E500F0B0F6E0FC083FF81502F
:1001B80001098A6E210E0D6E760EE82EFED70D2EE1
:1001C800FCD700D08150FE0B8A6E12000E6E815053
:1001D800FD0B8A6E815001098A6E0E380F0B0F6E67
:1001E8000FC083FF815001098A6E210E0D6E760EB5
:1001F800E82EFED70D2EFCD700D08150FE0B8A6E5C
:100208000E500F0B0F6E0FC083FF815001098A6ECD
:10021800210E0D6E760EE82EFED70D2EFCD700D0DF
:100228008150FE0B8A6E12000600F2A41EEF01F048
:1002380020EF01F02BEF01F08150040A8A6E815003
:10024800080A8A6EE10ED76E7B0ED66EF2949EAACD
:1002580030EF01F032EF01F035EF01F0AECF11F0E1
:100268009E9A129211009350FB0B936E9350F70BCA
:10027800936E8150FB0B8A6E815008098A6E6DEC73
:1002880001F0080E0D6E000E0E6E6DEC00F009EC1C
:1002980000F04DEF01F007EF00F0CE0EF66E020E03
:1002A800F76E000EF86E00EE01F010EE0CF009008B
:1002B800F5CFEEFFE550E150FAE1116A1290129283
:1002C800000137EF01F00000008025000000000069
:0A02D8000007D08EF28EF28C1200A7
:020000040020DA
:08000000FFFFFFFFFFFFFFFF00
:020000040030CA
:0E000000FF021F1EFF0181FF0FC00FE00F4027
:00000001FF
