:020000040000FA
:0400000007EF00F016
:100008002182C9ED00F0ACEF00F0D59E17C0D9FFF2
:1000180018C0DAFFDF50196E193A19461946D5503B
:100028001918BF0B1918D56E20EE01F01750D926F4
:100038001850DA22DF50196E193A1946D550191896
:10004800DF0B1918D56E20EE03F01750D92618507B
:10005800DA22DF50196E194619461946D550191873
:10006800F70B1918D56ED530E832E832010B0009C4
:10007800D8A441EF00F043EF00F050EF00F020EE7D
:1000880004F01750D9261850DA22DF50196ED550CF
:100098001918F80B1918D56EF28AF184FB0ED76E71
:1000A8001E0ED66ED58E12009350FE0B936E935093
:1000B800FD0B936E8150FE0B8A6E8150FD0B8A6E8C
:1000C800ECEC00F0070E176E000E186E09EC00F04D
:1000D8008150010A8A6E010E186EF40E176E82ECBA
:1000E80000F08150010A8A6E010E186EF40E176E28
:1000F80082EC00F06CEF00F007EF00F013C001F0A5
:1001080014C002F015C003F016C004F00150135CCF
:10011800196E025014581A6E035015581B6E04506D
:1001280016581C6E17501D6E18501E6E1F6A206AD6
:1001380019501D5C1A501E581B501F581C5020582F
:10014800D8B0A9EF00F0ABEF00F08AEF00F0120092
:10015800CC0EF66E010EF76E000EF86E00EE0CF087
:1001680010EE0BF00900F5CFEEFFE550E150FAE193
:1001780000EE01F00B0EEE6AE806FDE121902192F7
:10018800000EF86E000158EF00F00600F2A4CFEF61
:1001980000F0D1EF00F0DCEF00F0010E1326000EA6
:1001A800142215221622FB0ED76E1E0ED66EF2945E
:1001B8009EAAE1EF00F0E3EF00F0E4EF00F09E9A72
:0F01C800219211000000008025000001000000BE
:0801D800D08EF28EF28C1200B1
:020000040020DA
:08000000FFFFFFFFFFFFFFFF00
:020000040030CA
:0E000000FF021F1EFF0181FF0FC00FE00F4027
:00000001FF
