:020000040000FA
:0400000007EF00F016
:0A00080067825AED06F049EF08F098
:10060000000A2A2A2A454E564941204C4F4720418C
:100610005455414C3A202A2A2A0A000A2A2A2A55E5
:100620004C54494D4F204C4F472A2A2A0A004E610C
:100630006F2074656D20656E6572676961000A568A
:10064000616C6F72204C69646F3A2000446573637B
:100650006F6E65637461646F0054656D20656E65CF
:1006600072676961004E616F2074656D204C6F6721
:10067000004572726F2053656E736F72000A416499
:1006800064726573733A20004E616F206520486F75
:1006900072610046554C4C204D454D2E00436F6E07
:1006A00065637461646F00454550524F4D3A0000D8
:1006B000000E01011E6F000E1C6F20EE80F011EE87
:1006C00000F00E0EDBCFE3FFE806FCE220EE8FF039
:1006D00011EE0FF00C0EDBCFE3FFE806FCE250500A
:1006E000D8B475EF03F077EF03F0FFEF04F05C0E82
:1006F0003C6E000E3D6E640E3A6E000E3B6ED2EC08
:1007000009F0446E4450D8B488EF03F08AEF03F048
:1007100020EF04F0000E116E010E91EC07F00C0EAC
:10072000226EAF0EE82EFED7222EFCD700F09D0ED3
:10073000146E060E156E0A0E166E000E176ECFECB6
:1007400007F0100E236E390E226E0E0EE82EFED725
:10075000222EFCD7232EFAD74950D8B4B2EF03F09B
:10076000B4EF03F0F4EF03F01B0E126E060E136EDF
:10077000120E146E0EEC09F0000E01011E6F1E51D8
:100780008DEC09F001011D6F1D29D8B4CAEF03F0EB
:10079000CCEF03F0E3EF03F07D0E126E060E136E46
:1007A000090E146E0EEC09F0310EBDEC09F03E0E90
:1007B000126E060E136E0C0E146E0EEC09F0010193
:1007C0001D51BDEC09F0020E01011E27080E1E6529
:1007D000ECEF03F0EEEF03F0BFEF03F0000E496E15
:1007E000000E4F6EFBEF04F0000E116E010E91EC47
:1007F00007F00C0E226EAF0EE82EFED7222EFCD78D
:1008000000F0650E146E060E156E0C0E166E000EC0
:10081000176ECFEC07F0100E236E390E226E0E0EFF
:10082000E82EFED7222EFCD7232EFAD7010E126E09
:10083000060E136E190E146E0EEC09F0FBEF04F0A9
:10084000000E116E010E91EC07F00C0E226EAF0E31
:10085000E82EFED7222EFCD700F04C0E146E060EAA
:10086000156E0D0E166E000E176ECFEC07F0100E03
:10087000236E390E226E0E0EE82EFED7222EFCD7E6
:10088000232EFAD7CFEC09F0436E4350D8B44BEF88
:1008900004F04DEF04F070EF04F0000E116E010E45
:1008A00091EC07F0140E226E7A0EE82EFED7222E5F
:1008B000FCD7590E146E060E156E0C0E166E000E39
:1008C000176ECFEC07F0080E236E9D0E226E060EFB
:1008D000E82EFED7222EFCD7232EFAD7FBEF04F00A
:1008E000000E116E010E91EC07F0140E226E7A0EBE
:1008F000E82EFED7222EFCD72E0E146E060E156E95
:10090000100E166E000E176ECFEC07F0080E236E59
:100910009D0E226E060EE82EFED7222EFCD7232E29
:10092000FAD7090E4F6097EF04F099EF04F0D7EF74
:1009300004F04FC011F04750410F62EC09F04F50E6
:100940008DEC09F001011D6F000E116E010E91EC8E
:1009500007F0140E226E7A0EE82EFED7222EFCD758
:10096000A70E146E060E156E080E166E000E176E8C
:10097000CFEC07F0200E7CEC08F001011D517CEC5F
:1009800008F0200E7CEC08F04F50300F7CEC08F0A3
:10099000080E236E9D0E226E060EE82EFED7222E26
:1009A000FCD7232EFAD74F2A472AF9EF04F0000E7E
:1009B000116E010E91EC07F0140E226E7A0EE82EE5
:1009C000FED7222EFCD7930E146E060E156E0A0E5D
:1009D000166E000E176ECFEC07F0060E236E540E47
:1009E000226E9D0EE82EFED7222EFCD7232EFAD79C
:1009F00000F0010E496E000E506E6FEF03F0000E16
:100A0000116E010E91EC07F0140E226E7A0EE82E94
:100A1000FED7222EFCD7880E146E060E156E0B0E16
:100A2000166E000E176ECFEC07F01F0E236E710EC0
:100A3000226E1E0EE82EFED7222EFCD7232EFAD7CA
:100A400000D06FEF03F01200000E116E1B0E126E3D
:100A5000B70E136E000E146E20EE03F01E50D92652
:100A60001F50DA22DECF20F0DECF21F0DECF22F0E1
:100A7000DECF23F0060ED8902036213622362336DC
:100A8000E82E3BEF05F020C015F021C016F022C083
:100A900017F023C018F0AEEC06F01150266E000ED1
:100AA000116E1B0E126EB70E136E000E146E20EE3A
:100AB00003F01E50D9261F50DA22DECF20F0DECF01
:100AC00021F0DECF22F0DECF23F0040ED8902036C6
:100AD000213622362336E82E66EF05F020C015F0C9
:100AE00021C016F022C017F023C018F0AEEC06F0BB
:100AF0001150276E000E116E1B0E126EB70E136E84
:100B0000000E146E20EE03F01E50D9261F50DA227C
:100B1000DECF20F0DECF21F0DECF22F0DECF23F0DB
:100B2000020ED8902036213622362336E82E91EF59
:100B300005F020C015F021C016F022C017F023C028
:100B400018F0AEEC06F01150286E20EE03F01E50A7
:100B5000D9261F50DA22DF50206E000E116E1B0EB8
:100B6000126EB70E136E000E146E2650400DF3CFAA
:100B700021F0F4CF22F021C015F022C016F0000EB3
:100B800016BEFF0E176E186EAEEC06F02050115C0C
:100B9000246E20EE03F01E50D9261F50DA22DF50BB
:100BA000206E000E116E1B0E126EB70E136E000E2D
:100BB000146E2750100DF3CF21F0F4CF22F021C096
:100BC00015F022C016F0000E16BEFF0E176E186E3E
:100BD000AEEC06F02050115C296E20EE03F01E50A2
:100BE000D9261F50DA22DF50206E000E116E1B0E28
:100BF000126EB70E136E000E146E2850040DF3CF54
:100C000021F0F4CF22F021C015F022C016F0000E22
:100C100016BEFF0E176E186EAEEC06F02050115C7B
:100C2000256E24C02AF0B896AC942604AF6E2A50E4
:100C3000295CD8B01EEF06F020EF06F026EF06F094
:100C400029C02AF0B896AC842704AF6E2A50255CE0
:100C5000D8B02DEF06F02FEF06F033EF06F0B88690
:100C6000AC842804AF6E20EE02F01E50D9261F502F
:100C7000DA22DF50206E203AAC502018EF0B2018FB
:100C8000AC6EAB8E20EE01F01E50D9261F50DA223A
:100C9000DE04D8A44EEF06F050EF06F054EF06F055
:100CA000AC8CAB8C56EF06F0AC9CAB9CAC8AAB88A2
:100CB0009D8A12000600FACF0DF0FBCF0EF0D9CFBF
:100CC0000FF0DACF10F0F2A468EF06F06AEF06F04A
:100CD00075EF06F0600E0B6E000E0C6E2DEC09F039
:100CE000D20ED76E380ED66EF2949EAA7AEF06F028
:100CF0007CEF06F0A4EF06F0AECF4CF04C50B2EC17
:100D000009F0430E4C18D8A488EF06F08AEF06F0DD
:100D100092EF06F08150010A8A6E010ECBEC09F0C9
:100D2000A1EF06F0440E4C18D8A499EF06F09BEF03
:100D300006F0A1EF06F08150020A8A6E000ECBEC9D
:100D400009F0000E4C6E9E9A10C0DAFF0FC0D9FF5A
:100D50000EC0FBFF0DC0FAFF67921100000E196E66
:100D6000000E1A6E000E1B6E000E1C6E1550161033
:100D700017101810D8B4BFEF06F0C1EF06F0F7EF68
:100D800006F0010E1D6ECBEF06F0D8901536163624
:100D9000173618361D2A18AED0EF06F0D2EF06F03F
:100DA000C5EF06F0D89019361A361B361C3615508A
:100DB000115C165012581750135818501458D8A0D8
:100DC000E4EF06F0E6EF06F0EFEF06F01550115EE7
:100DD0001650125A1750135A1850145A1980D89096
:100DE00018321732163215321D2ED2EF06F019C006
:100DF00011F01AC012F01BC013F01CC014F0120046
:100E0000D59E11C0D9FF12C0DAFFDF50136E133A1E
:100E100013461346D5501318BF0B1318D56E20EE8A
:100E200001F01150D9261250DA22DF50136E133A16
:100E30001346D5501318DF0B1318D56E20EE03F0B0
:100E40001150D9261250DA22DF50136E1346134682
:100E50001346D5501318F70B1318D56ED530E8325A
:100E6000E832010B0009D8A438EF07F03AEF07F099
:100E700047EF07F020EE04F01150D9261250DA2285
:100E8000DF50136ED5501318F80B1318D56EF28A75
:100E9000F184D20ED76E380ED66ED58E1200C7EC06
:100EA00009F0570E116E000E126E00EC07F0180ECE
:100EB000116E100E126EC2EC09F0D50E1E6E000EF1
:100EC0001F6E24EC05F09350FE0B936E9350FD0BB8
:100ED000936E95500109956E050E2C6E910E2B6E3A
:100EE000D00EE82EFED72B2EFCD72C2EFAD7DFEC17
:100EF00008F07AEC09F01F0E2C6E710E2B6E1E0E90
:100F0000E82EFED72B2EFCD72C2EFAD700D0000EC1
:100F1000206E000E216E58EC03F087EF07F007EF0C
:100F200000F0136E1104D8A498EF07F09AEF07F0C1
:100F30009FEF07F0815008098A6EA2EF07F08150F9
:100F4000F70B8A6E1350F00B146E81500F0B1410B8
:100F50008A6E8150FB0B8A6E815004098A6E640E82
:100F6000E82EFED78150FB0B8A6E1338F00B146EFF
:100F700014C08AFF8150FB0B8A6E815004098A6E6F
:100F8000640EE82EFED78150FB0B8A6E040E126EA3
:100F9000E40EE82EFED7122EFCD700D01200000E71
:100FA0001F6E000E1F6EEEEF07F01F501424186E18
:100FB000000E1520196E18C0F6FF19C0F7FFF86A69
:100FC000050EF76403D00800F55005D0F6CFE9FF11
:100FD000F7CFEAFFEF507CEC08F01F2AFF0E186EE7
:100FE000FF0E196E16501A6E1B6A18501A261950E9
:100FF0001B221F501C6E1D6A1A501C5C1D50800A5B
:101000001E6E1B50800A1E58D8A009EF08F00BEF87
:1010100008F0D5EF07F0120001C0D9FF02C0DAFFD7
:10102000DE2A000EDE22DE22DE2201C0D9FF02C04F
:10103000DAFFDECF03F0DECF04F0DECF05F0DECF47
:1010400006F03150035C076E32500458086E33507E
:101050000558096E345006580A6E0A5009100810D7
:1010600009E1030E075CD8A038EF08F03AEF08F06A
:1010700048EF08F001C0D9FF02C0DAFFDECF31F03F
:10108000DECF32F0DECF33F0DECF34F0010E506E23
:1010900012005C0EF66E110EF76E000EF86E00EE8A
:1010A00080F010EE62F00900F5CFEEFFE550E15060
:1010B000FAE1380EF66E130EF76E000EF86E00EEC3
:1010C00051F010EE16F00900F5CFEEFFE550E150BB
:1010D000FAE100EEE2F0090EEE6AE806FDE100EE4C
:1010E0002DF0240EEE6AE806FDE167906792000E8F
:1010F000F86E00014FEF07F0126E815008098A6EFA
:101100001250F00B136E81500F0B13108A6E81502A
:10111000FB0B8A6E815004098A6E640EE82EFED79E
:101120008150FB0B8A6E1238F00B136E81500F0B3F
:1011300013108A6E8150FB0B8A6E815004098A6EEF
:10114000640EE82EFED78150FB0B8A6E080E116EDE
:10115000CA0EE82EFED7112EFCD712005553455269
:1011600020434F4E45435441444F00555345522070
:10117000444553434F4E4E0048554D3A2000000021
:101180000000000041542B50494E58595A57005402
:10119000454D503A20000000000041542B4241557B
:1011A000440041542B4E414D450048554D203A20B6
:1011B000000000008025000054454D503A204E0E9E
:1011C000156EEB0EE82EFED7152EFCD700F0000EA4
:1011D000936E200E48EC09F0200E48EC09F0300E1A
:1011E00048EC09F0000E116E2C0E91EC07F0000E89
:1011F000116E060E91EC07F0000E116E0F0E91ECC1
:1012000007F0000E116E010E91EC07F0080E156E3E
:10121000CA0EE82EFED7152EFCD71200000E176E50
:10122000000E176E23EF09F017501224156E000EF2
:101230001320166E15C0F6FF16C0F7FF0800F55014
:10124000A7EC09F0172A1450175CD8A02AEF09F070
:101250002CEF09F014EF09F0120038503910D8B40F
:1012600034EF09F036EF09F047EF09F00BC001F059
:101270000CC002F002D847EF09F00500FA6E3850B2
:10128000FD6E3950FE6EF850FF6EFA5012001200DB
:10129000126E8150F70B8A6E81500F0B12108A6EFE
:1012A000815004098A6E640EE82EFED78150FB0B34
:1012B0008A6E040E116EE40EE82EFED7112EFCD7B6
:1012C00000D01200126EF250A6B269EF09F06BEF77
:1012D00009F064EF09F011C0A9FF12C0A8FFA69E93
:1012E000A69CA684F29E550EA76EAA0EA76EA68295
:1012F000F28E1200000E136E13C011F0FF0E62EC9E
:1013000009F0132A1328D8A488EF09F08AEF09F00E
:101310007CEF09F0000E4F6E1200116EA6B293EF33
:1013200009F095EF09F08EEF09F011C0A9FFA69E14
:10133000A69CA680A8501200302E30302E3000001F
:101340000000072300F843010000005A0525116E34
:1013500011C0ADFFACA2AFEF09F0B1EF09F0AAEFF9
:1013600009F01200016E01C0ADFFACA2BAEF09F0A6
:10137000BCEF09F0B5EF09F01200126E1250A7ECA5
:1013800009F0120011C038F012C039F01200D08EEE
:10139000F28EF28C1200016E01C04AF012008350EE
:0813A000010B12004A5012007B
:020000040020DA
:08000000FFFFFFFFFFFFFFFF00
:020000040030CA
:0E000000FF021F1EFF8181FF0FC00FE00F40A7
:00000001FF
