:020000040000FA
:0400000007EF00F016
:0A00080065824FED04F0FBEF07F0F6
:100600000053544152545F424C5545544F4F544847
:100610000044485431312054494D454F555400440D
:1006200048543131204F4B00454E4420494E4954E7
:100630000000800E1B6E960E1C6E980E1D6E000E36
:100640001E6E20EE03F02850D9262950DA22DECF84
:100650002AF0DECF2BF0DECF2CF0DECF2DF0060E11
:10066000D8902A362B362C362D36E82E30EF03F074
:100670002AC01FF02BC020F02CC021F02DC022F08A
:1006800054EC05F01B50306E800E1B6E960E1C6EE7
:10069000980E1D6E000E1E6E20EE03F02850D92617
:1006A0002950DA22DECF2AF0DECF2BF0DECF2CF07D
:1006B000DECF2DF0040ED8902A362B362C362D3670
:1006C000E82E5BEF03F02AC01FF02BC020F02CC0F7
:1006D00021F02DC022F054EC05F01B50316E800E3D
:1006E0001B6E960E1C6E980E1D6E000E1E6E20EE7A
:1006F00003F02850D9262950DA22DECF2AF0DECFA7
:100700002BF0DECF2CF0DECF2DF0020ED8902A3663
:100710002B362C362D36E82E86EF03F02AC01FF03C
:100720002BC020F02CC021F02DC022F054EC05F09D
:100730001B50326E20EE03F02850D9262950DA22C1
:10074000DF502A6E800E1B6E960E1C6E980E1D6E6C
:10075000000E1E6E3050400DF3CF2BF0F4CF2CF076
:100760002BC01FF02CC020F0000E20BEFF0E216E0B
:10077000226E54EC05F02A501B5C2E6E20EE03F026
:100780002850D9262950DA22DF502A6E800E1B6E9F
:10079000960E1C6E980E1D6E000E1E6E3150100DC2
:1007A000F3CF2BF0F4CF2CF02BC01FF02CC020F097
:1007B000000E20BEFF0E216E226E54EC05F02A5072
:1007C0001B5C336E20EE03F02850D9262950DA2224
:1007D000DF502A6E800E1B6E960E1C6E980E1D6EDC
:1007E000000E1E6E3250040DF3CF2BF0F4CF2CF020
:1007F0002BC01FF02CC020F0000E20BEFF0E216E7B
:10080000226E54EC05F02A501B5C2F6E2EC034F083
:10081000B896AC943004AF6E3450335CD8B013EF5C
:1008200004F015EF04F01BEF04F033C034F0B89679
:10083000AC843104AF6E34502F5CD8B022EF04F09A
:1008400024EF04F028EF04F0B886AC843204AF6ED5
:1008500020EE02F02850D9262950DA22DF502A6EE5
:100860002A3AAC502A18EF0B2A18AC6EAB8E20EE49
:1008700001F02850D9262950DA22DE04D8A443EF0B
:1008800004F045EF04F049EF04F0AC8CAB8C4BEF77
:1008900004F0AC9CAB9CAC8AAB889D8A120006002D
:1008A000FACF11F0FBCF12F0E9CF13F0EACF14F03A
:1008B000D9CF15F0DACF16F0F6CF17F0F7CF18F042
:1008C000F8CF19F0F5CF1AF0F2A469EF04F06BEF4E
:1008D00004F076EF04F05D0E0B6E000E0C6E4FEC24
:1008E00008F0FB0ED76E1E0ED66EF2949EAA7BEF1A
:1008F00004F07DEF04F0D7EF04F0AECF48F04F0ED8
:100900004724D96EDA6A000EDA2248C0DFFF3E0EB5
:100910004818D8B48EEF04F090EF04F09BEF04F089
:100920004F0E4724D96EDA6A000EDA2248C0DFFF84
:10093000472AD6EF04F04F0E4724D96EDA6A000E2C
:10094000DA2248C0DFFF000E016E010E75EC06F0E2
:10095000110E106E3A0EE82EFED7102EFCD700D0E6
:100960004F0E046E000E056E040E066E000E076E2E
:10097000F1EC06F0430E5018D8A4C1EF04F0C3EF19
:1009800004F0C8EF04F0010E95EC08F0D4EF04F089
:10099000440E5018D8A4CFEF04F0D1EF04F0D4EFF8
:1009A00004F0000E95EC08F0000E476E9E9A1AC0F7
:1009B000F5FF19C0F8FF18C0F7FF17C0F6FF16C003
:1009C000DAFF15C0D9FF14C0EAFF13C0E9FF12C057
:1009D000FBFF11C0FAFF6592110020EE80F010EECF
:1009E000CEF00E0EDBCFE3FFE806FCE220EE8FF048
:1009F00010EEDDF00C0EDBCFE3FFE806FCE2495021
:100A0000D8B405EF05F007EF05F04EEF05F0630EE3
:100A1000416E000E426E610E3F6E000E406E99EC0C
:100A200008F0436E4350D8B418EF05F01AEF05F004
:100A300033EF05F0000E1B6E010E36EC06F0110EC2
:100A40002C6E3A0EE82EFED72C2EFCD700D0CE0E00
:100A50001E6E000E1F6E0F0E206E000E216EB4EC87
:100A600006F04AEF05F0000E1B6E010E36EC06F0A4
:100A7000110E2C6E3A0EE82EFED72C2EFCD700D08D
:100A8000DD0E1E6E000E1F6E0D0E206E000E216E0E
:100A9000B4EC06F0000E496EFFEF04F0815002093D
:100AA0008A6EFFEF04F01200000E236E000E246E1B
:100AB000000E256E000E266E1F50201021102210F1
:100AC000D8B465EF05F067EF05F09DEF05F0010E76
:100AD000276E71EF05F0D8901F362036213622366A
:100AE000272A22AE76EF05F078EF05F06BEF05F0E0
:100AF000D89023362436253626361F501B5C2050CE
:100B00001C5821501D5822501E58D8A08AEF05F0BD
:100B10008CEF05F095EF05F01F501B5E20501C5A1E
:100B200021501D5A22501E5A2380D8902232213241
:100B300020321F32272E78EF05F023C01BF024C08F
:100B40001CF025C01DF026C01EF01200D59E1BC053
:100B5000D9FF1CC0DAFFDF501D6E1D3A1D461D4631
:100B6000D5501D18BF0B1D18D56E20EE01F01B507F
:100B7000D9261C50DA22DF501D6E1D3A1D46D55075
:100B80001D18DF0B1D18D56E20EE03F01B50D92663
:100B90001C50DA22DF501D6E1D461D461D46D550E5
:100BA0001D18F70B1D18D56ED530E832E832010B51
:100BB0000009D8A4DEEF05F0E0EF05F0EDEF05F059
:100BC00020EE04F01B50D9261C50DA22DF501D6E97
:100BD000D5501D18F80B1D18D56EF28AF184FB0E46
:100BE000D76E1E0ED66ED58E120001C0D9FF02C080
:100BF000DAFFDE2A000EDE22DE22DE2201C0D9FF6D
:100C000002C0DAFFDECF03F0DECF04F0DECF05F066
:100C1000DECF06F03950035C076E3A500458086E78
:100C20003B500558096E3C5006580A6E0A50091090
:100C30000BE1100E075C270E0858D8A022EF06F033
:100C400024EF06F035EF06F08150010A8A6E01C0EC
:100C5000D9FF02C0DAFFDECF39F0DECF3AF0DECFC7
:100C60003BF0DECF3CF0010E496E12001D6E1B04FE
:100C7000D8A43DEF06F03FEF06F044EF06F08150B8
:100C800008098A6E47EF06F08150F70B8A6E1D50F7
:100C9000F00B1E6E81500F0B1E108A6E8150FB0BE5
:100CA0008A6E815004098A6E530EE82EFED700F03A
:100CB0008150FB0B8A6E1D38F00B1E6E1EC08AFF22
:100CC0008150FB0B8A6E815004098A6E530EE82E08
:100CD000FED700F08150FB0B8A6E040E1C6E3E0E98
:100CE000E82EFED71C2EFCD71200036E0104D8A4F8
:100CF0007CEF06F07EEF06F083EF06F081500809E6
:100D00008A6E86EF06F08150F70B8A6E0350F00B67
:100D1000046E81500F0B04108A6E8150FB0B8A6E9B
:100D2000815004098A6E530EE82EFED700F08150E0
:100D3000FB0B8A6E0338F00B046E04C08AFF8150EF
:100D4000FB0B8A6E815004098A6E530EE82EFED783
:100D500000F08150FB0B8A6E040E026E3E0EE82EF0
:100D6000FED7022EFCD71200000E296E000E296E4F
:100D7000D3EF06F029501E24226E000E1F20236E92
:100D800022C0F6FF23C0F7FFF86A050EF76403D010
:100D90000800F55005D0F6CFE9FFF7CFEAFFEF5096
:100DA0002EEC07F0292AFF0E226EFF0E236E205034
:100DB000246E256A22502426235025222950266E8F
:100DC000276A2450265C2750800A286E2550800A06
:100DD0002858D8A0EEEF06F0F0EF06F0BAEF06F0D4
:100DE0001200000E0F6E000E0F6E10EF07F00F5086
:100DF0000424086E000E0520096E08C0F6FF09C025
:100E0000F7FFF86A050EF76403D00800F55005D027
:100E1000F6CFE9FFF7CFEAFFEF5063EC07F00F2AB8
:100E2000FF0E086EFF0E096E06500A6E0B6A085020
:100E30000A2609500B220F500C6E0D6A0A500C5CEA
:100E40000D50800A0E6E0B50800A0E58D8A02BEF62
:100E500007F02DEF07F0F7EF06F012001C6E81503F
:100E600008098A6E1C50F00B1D6E81500F0B1D106F
:100E70008A6E8150FB0B8A6E815004098A6E530E74
:100E8000E82EFED700F08150FB0B8A6E1C38F00B69
:100E90001D6E81500F0B1D108A6E8150FB0B8A6EE8
:100EA000815004098A6E530EE82EFED700F081505F
:100EB000FB0B8A6E070E1B6E7D0EE82EFED71B2ED7
:100EC000FCD700F01200026E815008098A6E0250B1
:100ED000F00B036E81500F0B03108A6E8150FB0BD9
:100EE0008A6E815004098A6E530EE82EFED700F0F8
:100EF0008150FB0B8A6E0238F00B036E81500F0B92
:100F000003108A6E8150FB0B8A6E815004098A6E31
:100F1000530EE82EFED700F08150FB0B8A6E070EB1
:100F2000016E7D0EE82EFED7012EFCD700F01200D8
:100F300091EC08F04A0E1B6E000E1C6EA6EC05F03C
:100F4000EA0E1B6E0B0E1C6E8CEC08F0560E286E13
:100F5000000E296E19EC03F0040E0001EB6FCF0EAA
:100F6000EA6F010EE82EFED7EA2FFCD7EB2FFAD757
:100F700000D0CBEC07F09350FE0B936E9350FD0B1B
:100F8000936E000E2A6E000E2B6EEDEC04F0C1EF96
:100F900007F007EF00F0410E1F6EEE0EE82EFED7B1
:100FA0001F2EFCD700D0000E936E200E6AEC08F0C6
:100FB000200E6AEC08F0300E6AEC08F0000E1B6E92
:100FC0002C0E36EC06F0000E1B6E060E36EC06F00C
:100FD000000E1B6E0F0E36EC06F0000E1B6E010E9F
:100FE00036EC06F0070E1F6E7D0EE82EFED71F2E84
:100FF000FCD700F01200500EF66E100EF76E000EC9
:10100000F86E00EE80F010EE4EF00900F5CFEEFF26
:10101000E550E150FAE1080EF66E110EF76E000E83
:10102000F86E00EE56F010EE0FF00900F5CFEEFF6F
:10103000E550E150FAE100EE35F0210EEE6AE806E7
:10104000FDE165906592000EF86E000198EF07F0E3
:101050005553455220434F4E45435441444F00554C
:1010600053455220444553434F4E4E0048554D3A48
:10107000200000000000000041542B50494E5859F8
:101080005A570054454D503A20000000000041548A
:101090002B424155440041542B4E414D45003D509B
:1010A0003E10D8B456EF08F058EF08F069EF08F09A
:1010B0000BC001F00CC002F002D869EF08F0050087
:1010C000FA6E3D50FD6E3E50FE6EF850FF6EFA50C7
:1010D000120012001C6E8150F70B8A6E81500F0BAC
:1010E0001C108A6E815004098A6E530EE82EFED7BA
:1010F00000F08150FB0B8A6E040E1B6E3E0EE82E34
:10110000FED71B2EFCD71200000000802500000136
:071110000000005A05230056
:101118001BC03DF01CC03EF01200D08EF28EF28C47
:0E1128001200016E01C046F012004650120087
:020000040020DA
:08000000FFFFFFFFFFFFFFFF00
:020000040030CA
:0E000000FF021F1EFF0181FF0FC00FE00F4027
:00000001FF
