:020000040000FA
:040000009DEF3FF041
:107F3A000001A0EF3FF09350FE0B936E9350FD0BA0
:107F4A00936E8150010A8A6E000E026E000E016E57
:107F5A00000E046E000E036E034A042A04BEBFEF2D
:107F6A003FF0045009E1C80E035CD8A0BFEF3FF010
:107F7A00C1EF3FF0B1EF3FF0014A022A02BECFEF54
:107F8A003FF0025009E1C80E015CD8A0CFEF3FF0E4
:107F9A00D1EF3FF0ADEF3FF08150020A8A6E000E3A
:107FAA00026E000E016E000E046E000E036E034A8E
:107FBA00042A04BEEAEF3FF0045009E1C80E035C4C
:107FCA00D8A0EAEF3FF0ECEF3FF0DCEF3FF0014AD8
:107FDA00022A02BEFAEF3FF0025009E1C80E015C24
:107FEA00D8A0FAEF3FF0FCEF3FF0D8EF3FF0A6EF52
:067FFA003FF000EF00F073
:020000040020DA
:08000000FFFFFFFFFFFFFFFF00
:020000040030CA
:0E000000FF021F1EFF8181FF0FC00FE00F40A7
:00000001FF
